{
    "SelfDestruct" : {
        "_info" : {
            "comment" : "Ori Pomerantz qbzzt1@gmail.com",
            "filling-rpc-server" : "evm version 1.10.8-unstable-17cc2013-20210812",
            "filling-tool-version" : "retesteth-0.1.3-memory+commit.225b07bc.Linux.g++",
            "lllcversion" : "Version: 0.5.14-develop.2021.6.15+commit.401d5358.Linux.g++",
            "source" : "src/GeneralStateTestsFiller/stSolidityTest/SelfDestructFiller.yml",
            "sourceHash" : "6e675c62fa42d2f7adacab92ebec7503386244ca2e3eb9894b7c3c40487230b7"
        },
        "env" : {
            "currentBaseFee" : "0x0a",
            "currentCoinbase" : "0x2adc25665018aa1fe0e6bc666dac8fc2697ff9ba",
            "currentDifficulty" : "0x020000",
            "currentGasLimit" : "0x05f5e100",
            "currentNumber" : "0x01",
            "currentTimestamp" : "0x03e8",
            "previousHash" : "0x5e20a0453cecd065ea59c37ac63e079ee08998b6045136a8ce6635c7912ec0b6"
        },
        "post" : {
            "Berlin" : [
                {
                    "hash" : "0xba5691ee87b605c9adb5704aea2af7a0863d340222bcb1a56be45ebc6b5cfd69",
                    "indexes" : {
                        "data" : 0,
                        "gas" : 0,
                        "value" : 0
                    },
                    "logs" : "0x1dcc4de8dec75d7aab85b567b6ccd41ad312451b948a7413f0a142fd40d49347",
                    "txbytes" : "0xf885800a8404c4b40094cccccccccccccccccccccccccccccccccccccccc80a44cbe9d7200000000000000000000000000000000000000000000000000000000000000011ca07ee587728d69bf6fda01d0b64324ecd83bbc2731abf2269cf1ca028af249b5e5a02a030c04af0624e1aa7b80982da45909d91613dea37d9d2070d489ac56f93b92"
                },
                {
                    "hash" : "0x1ae3e81020235ef2c20118b69cb0ef31559b1a23da1b748fbbca47c4f13e13e1",
                    "indexes" : {
                        "data" : 1,
                        "gas" : 0,
                        "value" : 0
                    },
                    "logs" : "0x1dcc4de8dec75d7aab85b567b6ccd41ad312451b948a7413f0a142fd40d49347",
                    "txbytes" : "0xf885800a8404c4b40094cccccccccccccccccccccccccccccccccccccccc80a44cbe9d7200000000000000000000000000000000000000000000000000000000000000021ba0aea46c501360cdd1d1456da991bba2f707e4a19f641aba76487a241ac063acc6a033b91852533f2854d429af54a57737d7e0bcad9043db6d2801a78d9c369b40c6"
                },
                {
                    "hash" : "0x27388bb7fd5f850096aec49b4002723f04b368909db12aad07922b76d40d6875",
                    "indexes" : {
                        "data" : 2,
                        "gas" : 0,
                        "value" : 0
                    },
                    "logs" : "0x1dcc4de8dec75d7aab85b567b6ccd41ad312451b948a7413f0a142fd40d49347",
                    "txbytes" : "0xf885800a8404c4b40094cccccccccccccccccccccccccccccccccccccccc80a44cbe9d7200000000000000000000000000000000000000000000000000000000000000031ca0b2f5c812025b571b714ea93e6ac1f9feae4ff7ef3c6bd28773d44f643817295fa03cfb547cc8a995f739f5aa6918bdc4aba1b246dc2f3fe362a2c449e329398525"
                }
            ],
            "Istanbul" : [
                {
                    "hash" : "0x9f83971816613ba7e60d11f088963da3632bc87422e035cb7eb8534848e774aa",
                    "indexes" : {
                        "data" : 0,
                        "gas" : 0,
                        "value" : 0
                    },
                    "logs" : "0x1dcc4de8dec75d7aab85b567b6ccd41ad312451b948a7413f0a142fd40d49347",
                    "txbytes" : "0xf885800a8404c4b40094cccccccccccccccccccccccccccccccccccccccc80a44cbe9d7200000000000000000000000000000000000000000000000000000000000000011ca07ee587728d69bf6fda01d0b64324ecd83bbc2731abf2269cf1ca028af249b5e5a02a030c04af0624e1aa7b80982da45909d91613dea37d9d2070d489ac56f93b92"
                },
                {
                    "hash" : "0xbe7c00acabfb7df525d79b51aa8b5645be1d21081908b25b9f58eb75e604bfab",
                    "indexes" : {
                        "data" : 1,
                        "gas" : 0,
                        "value" : 0
                    },
                    "logs" : "0x1dcc4de8dec75d7aab85b567b6ccd41ad312451b948a7413f0a142fd40d49347",
                    "txbytes" : "0xf885800a8404c4b40094cccccccccccccccccccccccccccccccccccccccc80a44cbe9d7200000000000000000000000000000000000000000000000000000000000000021ba0aea46c501360cdd1d1456da991bba2f707e4a19f641aba76487a241ac063acc6a033b91852533f2854d429af54a57737d7e0bcad9043db6d2801a78d9c369b40c6"
                },
                {
                    "hash" : "0xed0ba38731f1dc37ff3342a88f8bb1b670ee7df6e34f115dcca6df05c948657f",
                    "indexes" : {
                        "data" : 2,
                        "gas" : 0,
                        "value" : 0
                    },
                    "logs" : "0x1dcc4de8dec75d7aab85b567b6ccd41ad312451b948a7413f0a142fd40d49347",
                    "txbytes" : "0xf885800a8404c4b40094cccccccccccccccccccccccccccccccccccccccc80a44cbe9d7200000000000000000000000000000000000000000000000000000000000000031ca0b2f5c812025b571b714ea93e6ac1f9feae4ff7ef3c6bd28773d44f643817295fa03cfb547cc8a995f739f5aa6918bdc4aba1b246dc2f3fe362a2c449e329398525"
                }
            ],
            "London" : [
                {
                    "hash" : "0xf1c67153185b095b161f39c761916a7bce6ee37843b5c08d23d0a1089b72275b",
                    "indexes" : {
                        "data" : 0,
                        "gas" : 0,
                        "value" : 0
                    },
                    "logs" : "0x1dcc4de8dec75d7aab85b567b6ccd41ad312451b948a7413f0a142fd40d49347",
                    "txbytes" : "0xf885800a8404c4b40094cccccccccccccccccccccccccccccccccccccccc80a44cbe9d7200000000000000000000000000000000000000000000000000000000000000011ca07ee587728d69bf6fda01d0b64324ecd83bbc2731abf2269cf1ca028af249b5e5a02a030c04af0624e1aa7b80982da45909d91613dea37d9d2070d489ac56f93b92"
                },
                {
                    "hash" : "0x9201bef1688e029dbd724f40c1ae28ed5ee8c814f46fc5392e82bca2b6bac8ec",
                    "indexes" : {
                        "data" : 1,
                        "gas" : 0,
                        "value" : 0
                    },
                    "logs" : "0x1dcc4de8dec75d7aab85b567b6ccd41ad312451b948a7413f0a142fd40d49347",
                    "txbytes" : "0xf885800a8404c4b40094cccccccccccccccccccccccccccccccccccccccc80a44cbe9d7200000000000000000000000000000000000000000000000000000000000000021ba0aea46c501360cdd1d1456da991bba2f707e4a19f641aba76487a241ac063acc6a033b91852533f2854d429af54a57737d7e0bcad9043db6d2801a78d9c369b40c6"
                },
                {
                    "hash" : "0x6fb1a69a1dced7725e0939ecb087b34f30e2040682cd6fd7f5bc924b828df2c2",
                    "indexes" : {
                        "data" : 2,
                        "gas" : 0,
                        "value" : 0
                    },
                    "logs" : "0x1dcc4de8dec75d7aab85b567b6ccd41ad312451b948a7413f0a142fd40d49347",
                    "txbytes" : "0xf885800a8404c4b40094cccccccccccccccccccccccccccccccccccccccc80a44cbe9d7200000000000000000000000000000000000000000000000000000000000000031ca0b2f5c812025b571b714ea93e6ac1f9feae4ff7ef3c6bd28773d44f643817295fa03cfb547cc8a995f739f5aa6918bdc4aba1b246dc2f3fe362a2c449e329398525"
                }
            ]
        },
        "pre" : {
            "0x0000000000000000000000000000000000000001" : {
                "balance" : "0x01",
                "code" : "0x",
                "nonce" : "0x00",
                "storage" : {
                }
            },
            "0x0000000000000000000000000000000000000002" : {
                "balance" : "0x01",
                "code" : "0x",
                "nonce" : "0x00",
                "storage" : {
                }
            },
            "0x0000000000000000000000000000000000000003" : {
                "balance" : "0x01",
                "code" : "0x",
                "nonce" : "0x00",
                "storage" : {
                }
            },
            "0xa94f5374fce5edbc8e2a8697c15331677e6ebf0b" : {
                "balance" : "0x0ba1a9ce0ba1a9ce",
                "code" : "0x",
                "nonce" : "0x00",
                "storage" : {
                }
            },
            "0xcccccccccccccccccccccccccccccccccccccccc" : {
                "balance" : "0x0ba1a9ce0ba1a9ce",
                "code" : "0x608060405234801561001057600080fd5b506004361061002b5760003560e01c80634cbe9d7214610030575b600080fd5b61004a60048036038101906100459190610280565b61004c565b005b600060018214156100cf5773dead00000000000000000000000000000000000190508073ffffffffffffffffffffffffffffffffffffffff1663b0bea7256040518163ffffffff1660e01b8152600401600060405180830381600087803b1580156100b657600080fd5b505af11580156100ca573d6000803e3d6000fd5b505050505b60028214156101505773dead00000000000000000000000000000000000290508073ffffffffffffffffffffffffffffffffffffffff1663b0bea7256040518163ffffffff1660e01b8152600401600060405180830381600087803b15801561013757600080fd5b505af115801561014b573d6000803e3d6000fd5b505050505b60038214156101d15773dead00000000000000000000000000000000000390508073ffffffffffffffffffffffffffffffffffffffff1663b0bea7256040518163ffffffff1660e01b8152600401600060405180830381600087803b1580156101b857600080fd5b505af11580156101cc573d6000803e3d6000fd5b505050505b73dead00000000000000000000000000000000000173ffffffffffffffffffffffffffffffffffffffff163160018190555073dead00000000000000000000000000000000000273ffffffffffffffffffffffffffffffffffffffff163160028190555073dead00000000000000000000000000000000000373ffffffffffffffffffffffffffffffffffffffff16316003819055505050565b60008135905061027a816102bc565b92915050565b600060208284031215610296576102956102b7565b5b60006102a48482850161026b565b91505092915050565b6000819050919050565b600080fd5b6102c5816102ad565b81146102d057600080fd5b5056fea26469706673582212202528353565628c8e5f19d34a066f7a9fa7c7937a5abd62a565c36b2e98b873b264736f6c63430008050033",
                "nonce" : "0x00",
                "storage" : {
                }
            },
            "0xdead000000000000000000000000000000000001" : {
                "balance" : "0xffffffffffffff",
                "code" : "0x60806040526004361060265760003560e01c80632c3f2bf314602b578063b0bea72514603f575b600080fd5b348015603657600080fd5b50603d6047565b005b60456061565b005b600273ffffffffffffffffffffffffffffffffffffffff16ff5b3073ffffffffffffffffffffffffffffffffffffffff16632c3f2bf36040518163ffffffff1660e01b8152600401600060405180830381600087803b15801560a857600080fd5b505af115801560bb573d6000803e3d6000fd5b50505050600173ffffffffffffffffffffffffffffffffffffffff16fffea2646970667358221220b069bb9250f48bc44058a812f97cb67f44133c2d19613616029ef9b00e0bc3a664736f6c63430008050033",
                "nonce" : "0x00",
                "storage" : {
                }
            },
            "0xdead000000000000000000000000000000000002" : {
                "balance" : "0xffffffffffffff",
                "code" : "0x60806040526004361060265760003560e01c80632c3f2bf314602b578063b0bea72514603f575b600080fd5b348015603657600080fd5b50603d6047565b005b60456060565b005b3073ffffffffffffffffffffffffffffffffffffffff16ff5b3073ffffffffffffffffffffffffffffffffffffffff16632c3f2bf36040518163ffffffff1660e01b8152600401600060405180830381600087803b15801560a757600080fd5b505af115801560ba573d6000803e3d6000fd5b50505050600373ffffffffffffffffffffffffffffffffffffffff16fffea264697066735822122025aa99db98a670dcdc9d19ed81e91dddc57bc7cc3c085fe9df1d4781abedcf6c64736f6c63430008050033",
                "nonce" : "0x00",
                "storage" : {
                }
            },
            "0xdead000000000000000000000000000000000003" : {
                "balance" : "0xffffffffffffff",
                "code" : "0x60806040526004361060265760003560e01c80632c3f2bf314602b578063b0bea72514603f575b600080fd5b348015603657600080fd5b50603d6047565b005b60456060565b005b3073ffffffffffffffffffffffffffffffffffffffff16ff5b3073ffffffffffffffffffffffffffffffffffffffff16632c3f2bf36040518163ffffffff1660e01b8152600401600060405180830381600087803b15801560a757600080fd5b505af115801560ba573d6000803e3d6000fd5b505050503073ffffffffffffffffffffffffffffffffffffffff16fffea26469706673582212205482385e53f1bd43645d42eee61eac47558aaad8f3952a0bfdc1319ddcb0330664736f6c63430008050033",
                "nonce" : "0x00",
                "storage" : {
                }
            }
        },
        "transaction" : {
            "data" : [
                "0x4cbe9d720000000000000000000000000000000000000000000000000000000000000001",
                "0x4cbe9d720000000000000000000000000000000000000000000000000000000000000002",
                "0x4cbe9d720000000000000000000000000000000000000000000000000000000000000003"
            ],
            "gasLimit" : [
                "0x04c4b400"
            ],
            "gasPrice" : "0x0a",
            "nonce" : "0x00",
            "secretKey" : "0x45a915e4d060149eb4365960e6a7a45f334393093061116b197e3240065ff2d8",
            "to" : "0xcccccccccccccccccccccccccccccccccccccccc",
            "value" : [
                "0x00"
            ]
        }
    }
}