{
    "solidityExample_d0g0v0_Berlin" : {
        "_info" : {
            "comment" : "An example test for using solidity contracts in the test",
            "filling-rpc-server" : "evm version 1.10.8-unstable-17cc2013-20210812",
            "filling-tool-version" : "retesteth-0.1.3-memory+commit.225b07bc.Linux.g++",
            "lllcversion" : "Version: 0.5.14-develop.2021.6.15+commit.401d5358.Linux.g++",
            "source" : "src/GeneralStateTestsFiller/stExample/solidityExampleFiller.yml",
            "sourceHash" : "59c914a72f92cdd7a4cd9353576a63ce6877daebc8472017e05842057a9cfd65"
        },
        "blocks" : [
            {
                "blockHeader" : {
                    "bloom" : "0x00000000000000000000000000000000000000000000000000000000000000000000000000000000000000000000000000000000000000000000000000000000000000000000000000000000000000000000000000000000000000000000000000000000000000000000000000000000000000000000000000000000000000000000000000000000000000000000000000000000000000000000000000000000000000000000000000000000000000000000000000000000000000000000000000000000000000000000000000000000000000000000000000000000000000000000000000000000000000000000000000000000000000000000000000000000",
                    "coinbase" : "0x2adc25665018aa1fe0e6bc666dac8fc2697ff9ba",
                    "difficulty" : "0x020000",
                    "extraData" : "0x00",
                    "gasLimit" : "0x05f5e100",
                    "gasUsed" : "0x029e0b",
                    "hash" : "0xf026671e73cd7f3cc420b50467659ece1dba1059569727cbc808c65565b4d6a7",
                    "mixHash" : "0x0000000000000000000000000000000000000000000000000000000000000000",
                    "nonce" : "0x0000000000000000",
                    "number" : "0x01",
                    "parentHash" : "0x6e5fc81d1222b0b60f59a331ad7de29960143d7fc63d6b7e8caaaa47c8ad307b",
                    "receiptTrie" : "0x9873ebab0a3f4a0e53812ee904ddcb5ad29d60db0643814d517e8270303a3616",
                    "stateRoot" : "0x7e3e0e0716e8e41c4d15a5cc5c27668b5e4c1ad6453ed18c06cf8b3bbff5fa0e",
                    "timestamp" : "0x03e8",
                    "transactionsTrie" : "0xb8466b5b437cf6d45ed3dfa2058e2b6709f1a86145215e8a59694dc559a4526f",
                    "uncleHash" : "0x1dcc4de8dec75d7aab85b567b6ccd41ad312451b948a7413f0a142fd40d49347"
                },
                "rlp" : "0xf902a7f901f9a06e5fc81d1222b0b60f59a331ad7de29960143d7fc63d6b7e8caaaa47c8ad307ba01dcc4de8dec75d7aab85b567b6ccd41ad312451b948a7413f0a142fd40d49347942adc25665018aa1fe0e6bc666dac8fc2697ff9baa07e3e0e0716e8e41c4d15a5cc5c27668b5e4c1ad6453ed18c06cf8b3bbff5fa0ea0b8466b5b437cf6d45ed3dfa2058e2b6709f1a86145215e8a59694dc559a4526fa09873ebab0a3f4a0e53812ee904ddcb5ad29d60db0643814d517e8270303a3616b901000000000000000000000000000000000000000000000000000000000000000000000000000000000000000000000000000000000000000000000000000000000000000000000000000000000000000000000000000000000000000000000000000000000000000000000000000000000000000000000000000000000000000000000000000000000000000000000000000000000000000000000000000000000000000000000000000000000000000000000000000000000000000000000000000000000000000000000000000000000000000000000000000000000000000000000000000000000000000000000000000000000000000000000000000000000083020000018405f5e10083029e0b8203e800a00000000000000000000000000000000000000000000000000000000000000000880000000000000000f8a8f8a6800a8404c4b40094095e7baea6a6c7c4c2dfeb977efac326af552d8780b844b66176a7000000000000000000000000000000000000000000000000000000000000000500000000000000000000000000000000000000000000000000000000000000451ca0557b882a6f4c398e1dc30731cc0490f9743d2df3a13b9e465a87198920d34877a071659dc2b9ff195215e075315734b937a7773e470d47d33cdca183b1bc4093a7c0",
                "transactions" : [
                    {
                        "data" : "0xb66176a700000000000000000000000000000000000000000000000000000000000000050000000000000000000000000000000000000000000000000000000000000045",
                        "gasLimit" : "0x04c4b400",
                        "gasPrice" : "0x0a",
                        "nonce" : "0x00",
                        "r" : "0x557b882a6f4c398e1dc30731cc0490f9743d2df3a13b9e465a87198920d34877",
                        "s" : "0x71659dc2b9ff195215e075315734b937a7773e470d47d33cdca183b1bc4093a7",
                        "to" : "0x095e7baea6a6c7c4c2dfeb977efac326af552d87",
                        "v" : "0x1c",
                        "value" : "0x00"
                    }
                ],
                "uncleHeaders" : [
                ]
            }
        ],
        "genesisBlockHeader" : {
            "bloom" : "0x00000000000000000000000000000000000000000000000000000000000000000000000000000000000000000000000000000000000000000000000000000000000000000000000000000000000000000000000000000000000000000000000000000000000000000000000000000000000000000000000000000000000000000000000000000000000000000000000000000000000000000000000000000000000000000000000000000000000000000000000000000000000000000000000000000000000000000000000000000000000000000000000000000000000000000000000000000000000000000000000000000000000000000000000000000000",
            "coinbase" : "0x2adc25665018aa1fe0e6bc666dac8fc2697ff9ba",
            "difficulty" : "0x020000",
            "extraData" : "0x00",
            "gasLimit" : "0x05f5e100",
            "gasUsed" : "0x00",
            "hash" : "0x6e5fc81d1222b0b60f59a331ad7de29960143d7fc63d6b7e8caaaa47c8ad307b",
            "mixHash" : "0x0000000000000000000000000000000000000000000000000000000000000000",
            "nonce" : "0x0000000000000000",
            "number" : "0x00",
            "parentHash" : "0x0000000000000000000000000000000000000000000000000000000000000000",
            "receiptTrie" : "0x56e81f171bcc55a6ff8345e692c0f86e5b48e01b996cadc001622fb5e363b421",
            "stateRoot" : "0x47790073477f8a65f2303e4cfc13a3d947dfd6b1430bc7fdf6bc22411cd59ec7",
            "timestamp" : "0x00",
            "transactionsTrie" : "0x56e81f171bcc55a6ff8345e692c0f86e5b48e01b996cadc001622fb5e363b421",
            "uncleHash" : "0x1dcc4de8dec75d7aab85b567b6ccd41ad312451b948a7413f0a142fd40d49347"
        },
        "genesisRLP" : "0xf901f9f901f4a00000000000000000000000000000000000000000000000000000000000000000a01dcc4de8dec75d7aab85b567b6ccd41ad312451b948a7413f0a142fd40d49347942adc25665018aa1fe0e6bc666dac8fc2697ff9baa047790073477f8a65f2303e4cfc13a3d947dfd6b1430bc7fdf6bc22411cd59ec7a056e81f171bcc55a6ff8345e692c0f86e5b48e01b996cadc001622fb5e363b421a056e81f171bcc55a6ff8345e692c0f86e5b48e01b996cadc001622fb5e363b421b901000000000000000000000000000000000000000000000000000000000000000000000000000000000000000000000000000000000000000000000000000000000000000000000000000000000000000000000000000000000000000000000000000000000000000000000000000000000000000000000000000000000000000000000000000000000000000000000000000000000000000000000000000000000000000000000000000000000000000000000000000000000000000000000000000000000000000000000000000000000000000000000000000000000000000000000000000000000000000000000000000000000000000000000000000000000083020000808405f5e100808000a00000000000000000000000000000000000000000000000000000000000000000880000000000000000c0c0",
        "lastblockhash" : "0xf026671e73cd7f3cc420b50467659ece1dba1059569727cbc808c65565b4d6a7",
        "network" : "Berlin",
        "postState" : {
            "0x095e7baea6a6c7c4c2dfeb977efac326af552d87" : {
                "balance" : "0x0ba1a9ce0ba1a9ce",
                "code" : "0x608060405234801561001057600080fd5b506004361061002b5760003560e01c8063b66176a714610030575b600080fd5b61004a60048036038101906100459190610167565b61004c565b005b60405161005890610145565b604051809103906000f080158015610074573d6000803e3d6000fd5b506000806101000a81548173ffffffffffffffffffffffffffffffffffffffff021916908373ffffffffffffffffffffffffffffffffffffffff16021790555060008054906101000a900473ffffffffffffffffffffffffffffffffffffffff1673ffffffffffffffffffffffffffffffffffffffff1663b66176a783836040518363ffffffff1660e01b815260040161010f9291906101b6565b600060405180830381600087803b15801561012957600080fd5b505af115801561013d573d6000803e3d6000fd5b505050505050565b6101238061020683390190565b600081359050610161816101ee565b92915050565b6000806040838503121561017e5761017d6101e9565b5b600061018c85828601610152565b925050602061019d85828601610152565b9150509250929050565b6101b0816101df565b82525050565b60006040820190506101cb60008301856101a7565b6101d860208301846101a7565b9392505050565b6000819050919050565b600080fd5b6101f7816101df565b811461020257600080fd5b5056fe608060405267ff00ff00ff00ff0060005534801561001c57600080fd5b5060f88061002b6000396000f3fe6080604052348015600f57600080fd5b506004361060285760003560e01c8063b66176a714602d575b600080fd5b60436004803603810190603f91906066565b6045565b005b806000819055508082555050565b60008135905060608160ae565b92915050565b60008060408385031215607a57607960a9565b5b60006086858286016053565b92505060206095858286016053565b9150509250929050565b6000819050919050565b600080fd5b60b581609f565b811460bf57600080fd5b5056fea264697066735822122083925316825ccc4ed9942dca6aec0258780b381232a8b0ffbac2a285abd0f2be64736f6c63430008050033a26469706673582212209081a862d1a15a19d7a0b05b6df7970d0b9539328a4d72411433d8a6f82b3c9c64736f6c63430008050033",
                "nonce" : "0x01",
                "storage" : {
                    "0x00" : "0xd2571607e241ecf590ed94b12d87c94babe36db6"
                }
            },
            "0x195e7baea6a6c7c4c2dfeb977efac326af552d87" : {
                "balance" : "0x0ba1a9ce0ba1a9ce",
                "code" : "0x6080604052348015600f57600080fd5b506004361060285760003560e01c8063b66176a714602d575b600080fd5b60436004803603810190603f91906066565b6045565b005b806000819055508082555050565b60008135905060608160ae565b92915050565b60008060408385031215607a57607960a9565b5b60006086858286016053565b92505060206095858286016053565b9150509250929050565b6000819050919050565b600080fd5b60b581609f565b811460bf57600080fd5b5056fea264697066735822122074ffac7423882f7cbb24582d7632e076ffa2b8fd3a50bc3449d257b9212b5cdc64736f6c63430008050033",
                "nonce" : "0x00",
                "storage" : {
                }
            },
            "0x2adc25665018aa1fe0e6bc666dac8fc2697ff9ba" : {
                "balance" : "0x1bc16d674ee22c6e",
                "code" : "0x",
                "nonce" : "0x00",
                "storage" : {
                }
            },
            "0xa94f5374fce5edbc8e2a8697c15331677e6ebf0b" : {
                "balance" : "0x0ba1a9ce0b877d60",
                "code" : "0x",
                "nonce" : "0x01",
                "storage" : {
                }
            },
            "0xd2571607e241ecf590ed94b12d87c94babe36db6" : {
                "balance" : "0x00",
                "code" : "0x6080604052348015600f57600080fd5b506004361060285760003560e01c8063b66176a714602d575b600080fd5b60436004803603810190603f91906066565b6045565b005b806000819055508082555050565b60008135905060608160ae565b92915050565b60008060408385031215607a57607960a9565b5b60006086858286016053565b92505060206095858286016053565b9150509250929050565b6000819050919050565b600080fd5b60b581609f565b811460bf57600080fd5b5056fea264697066735822122083925316825ccc4ed9942dca6aec0258780b381232a8b0ffbac2a285abd0f2be64736f6c63430008050033",
                "nonce" : "0x01",
                "storage" : {
                    "0x00" : "0x45",
                    "0x05" : "0x45"
                }
            }
        },
        "pre" : {
            "0x095e7baea6a6c7c4c2dfeb977efac326af552d87" : {
                "balance" : "0x0ba1a9ce0ba1a9ce",
                "code" : "0x608060405234801561001057600080fd5b506004361061002b5760003560e01c8063b66176a714610030575b600080fd5b61004a60048036038101906100459190610167565b61004c565b005b60405161005890610145565b604051809103906000f080158015610074573d6000803e3d6000fd5b506000806101000a81548173ffffffffffffffffffffffffffffffffffffffff021916908373ffffffffffffffffffffffffffffffffffffffff16021790555060008054906101000a900473ffffffffffffffffffffffffffffffffffffffff1673ffffffffffffffffffffffffffffffffffffffff1663b66176a783836040518363ffffffff1660e01b815260040161010f9291906101b6565b600060405180830381600087803b15801561012957600080fd5b505af115801561013d573d6000803e3d6000fd5b505050505050565b6101238061020683390190565b600081359050610161816101ee565b92915050565b6000806040838503121561017e5761017d6101e9565b5b600061018c85828601610152565b925050602061019d85828601610152565b9150509250929050565b6101b0816101df565b82525050565b60006040820190506101cb60008301856101a7565b6101d860208301846101a7565b9392505050565b6000819050919050565b600080fd5b6101f7816101df565b811461020257600080fd5b5056fe608060405267ff00ff00ff00ff0060005534801561001c57600080fd5b5060f88061002b6000396000f3fe6080604052348015600f57600080fd5b506004361060285760003560e01c8063b66176a714602d575b600080fd5b60436004803603810190603f91906066565b6045565b005b806000819055508082555050565b60008135905060608160ae565b92915050565b60008060408385031215607a57607960a9565b5b60006086858286016053565b92505060206095858286016053565b9150509250929050565b6000819050919050565b600080fd5b60b581609f565b811460bf57600080fd5b5056fea264697066735822122083925316825ccc4ed9942dca6aec0258780b381232a8b0ffbac2a285abd0f2be64736f6c63430008050033a26469706673582212209081a862d1a15a19d7a0b05b6df7970d0b9539328a4d72411433d8a6f82b3c9c64736f6c63430008050033",
                "nonce" : "0x00",
                "storage" : {
                }
            },
            "0x195e7baea6a6c7c4c2dfeb977efac326af552d87" : {
                "balance" : "0x0ba1a9ce0ba1a9ce",
                "code" : "0x6080604052348015600f57600080fd5b506004361060285760003560e01c8063b66176a714602d575b600080fd5b60436004803603810190603f91906066565b6045565b005b806000819055508082555050565b60008135905060608160ae565b92915050565b60008060408385031215607a57607960a9565b5b60006086858286016053565b92505060206095858286016053565b9150509250929050565b6000819050919050565b600080fd5b60b581609f565b811460bf57600080fd5b5056fea264697066735822122074ffac7423882f7cbb24582d7632e076ffa2b8fd3a50bc3449d257b9212b5cdc64736f6c63430008050033",
                "nonce" : "0x00",
                "storage" : {
                }
            },
            "0xa94f5374fce5edbc8e2a8697c15331677e6ebf0b" : {
                "balance" : "0x0ba1a9ce0ba1a9ce",
                "code" : "0x",
                "nonce" : "0x00",
                "storage" : {
                }
            }
        },
        "sealEngine" : "NoProof"
    },
    "solidityExample_d0g0v0_London" : {
        "_info" : {
            "comment" : "An example test for using solidity contracts in the test",
            "filling-rpc-server" : "evm version 1.10.8-unstable-17cc2013-20210812",
            "filling-tool-version" : "retesteth-0.1.3-memory+commit.225b07bc.Linux.g++",
            "lllcversion" : "Version: 0.5.14-develop.2021.6.15+commit.401d5358.Linux.g++",
            "source" : "src/GeneralStateTestsFiller/stExample/solidityExampleFiller.yml",
            "sourceHash" : "59c914a72f92cdd7a4cd9353576a63ce6877daebc8472017e05842057a9cfd65"
        },
        "blocks" : [
            {
                "blockHeader" : {
                    "baseFeePerGas" : "0x0a",
                    "bloom" : "0x00000000000000000000000000000000000000000000000000000000000000000000000000000000000000000000000000000000000000000000000000000000000000000000000000000000000000000000000000000000000000000000000000000000000000000000000000000000000000000000000000000000000000000000000000000000000000000000000000000000000000000000000000000000000000000000000000000000000000000000000000000000000000000000000000000000000000000000000000000000000000000000000000000000000000000000000000000000000000000000000000000000000000000000000000000000",
                    "coinbase" : "0x2adc25665018aa1fe0e6bc666dac8fc2697ff9ba",
                    "difficulty" : "0x020000",
                    "extraData" : "0x00",
                    "gasLimit" : "0x05f5e100",
                    "gasUsed" : "0x029e0b",
                    "hash" : "0xff5f742aae33beeef288b9f5a7da7f9aee289433cbe612001bba0590a7e8bbfe",
                    "mixHash" : "0x0000000000000000000000000000000000000000000000000000000000000000",
                    "nonce" : "0x0000000000000000",
                    "number" : "0x01",
                    "parentHash" : "0x93e49eefa9ba3735ea286aade1d1bc4ac1c3bd9191e05e93f7d0cbb28c681314",
                    "receiptTrie" : "0x9873ebab0a3f4a0e53812ee904ddcb5ad29d60db0643814d517e8270303a3616",
                    "stateRoot" : "0xdb651fd07d11e094f1f7c77d5b463bd9698d86d13b41136b66bc32ff69531519",
                    "timestamp" : "0x03e8",
                    "transactionsTrie" : "0xb8466b5b437cf6d45ed3dfa2058e2b6709f1a86145215e8a59694dc559a4526f",
                    "uncleHash" : "0x1dcc4de8dec75d7aab85b567b6ccd41ad312451b948a7413f0a142fd40d49347"
                },
                "rlp" : "0xf902a8f901faa093e49eefa9ba3735ea286aade1d1bc4ac1c3bd9191e05e93f7d0cbb28c681314a01dcc4de8dec75d7aab85b567b6ccd41ad312451b948a7413f0a142fd40d49347942adc25665018aa1fe0e6bc666dac8fc2697ff9baa0db651fd07d11e094f1f7c77d5b463bd9698d86d13b41136b66bc32ff69531519a0b8466b5b437cf6d45ed3dfa2058e2b6709f1a86145215e8a59694dc559a4526fa09873ebab0a3f4a0e53812ee904ddcb5ad29d60db0643814d517e8270303a3616b901000000000000000000000000000000000000000000000000000000000000000000000000000000000000000000000000000000000000000000000000000000000000000000000000000000000000000000000000000000000000000000000000000000000000000000000000000000000000000000000000000000000000000000000000000000000000000000000000000000000000000000000000000000000000000000000000000000000000000000000000000000000000000000000000000000000000000000000000000000000000000000000000000000000000000000000000000000000000000000000000000000000000000000000000000000000083020000018405f5e10083029e0b8203e800a000000000000000000000000000000000000000000000000000000000000000008800000000000000000af8a8f8a6800a8404c4b40094095e7baea6a6c7c4c2dfeb977efac326af552d8780b844b66176a7000000000000000000000000000000000000000000000000000000000000000500000000000000000000000000000000000000000000000000000000000000451ca0557b882a6f4c398e1dc30731cc0490f9743d2df3a13b9e465a87198920d34877a071659dc2b9ff195215e075315734b937a7773e470d47d33cdca183b1bc4093a7c0",
                "transactions" : [
                    {
                        "data" : "0xb66176a700000000000000000000000000000000000000000000000000000000000000050000000000000000000000000000000000000000000000000000000000000045",
                        "gasLimit" : "0x04c4b400",
                        "gasPrice" : "0x0a",
                        "nonce" : "0x00",
                        "r" : "0x557b882a6f4c398e1dc30731cc0490f9743d2df3a13b9e465a87198920d34877",
                        "s" : "0x71659dc2b9ff195215e075315734b937a7773e470d47d33cdca183b1bc4093a7",
                        "to" : "0x095e7baea6a6c7c4c2dfeb977efac326af552d87",
                        "v" : "0x1c",
                        "value" : "0x00"
                    }
                ],
                "uncleHeaders" : [
                ]
            }
        ],
        "genesisBlockHeader" : {
            "baseFeePerGas" : "0x0b",
            "bloom" : "0x00000000000000000000000000000000000000000000000000000000000000000000000000000000000000000000000000000000000000000000000000000000000000000000000000000000000000000000000000000000000000000000000000000000000000000000000000000000000000000000000000000000000000000000000000000000000000000000000000000000000000000000000000000000000000000000000000000000000000000000000000000000000000000000000000000000000000000000000000000000000000000000000000000000000000000000000000000000000000000000000000000000000000000000000000000000",
            "coinbase" : "0x2adc25665018aa1fe0e6bc666dac8fc2697ff9ba",
            "difficulty" : "0x020000",
            "extraData" : "0x00",
            "gasLimit" : "0x05f5e100",
            "gasUsed" : "0x00",
            "hash" : "0x93e49eefa9ba3735ea286aade1d1bc4ac1c3bd9191e05e93f7d0cbb28c681314",
            "mixHash" : "0x0000000000000000000000000000000000000000000000000000000000000000",
            "nonce" : "0x0000000000000000",
            "number" : "0x00",
            "parentHash" : "0x0000000000000000000000000000000000000000000000000000000000000000",
            "receiptTrie" : "0x56e81f171bcc55a6ff8345e692c0f86e5b48e01b996cadc001622fb5e363b421",
            "stateRoot" : "0x47790073477f8a65f2303e4cfc13a3d947dfd6b1430bc7fdf6bc22411cd59ec7",
            "timestamp" : "0x00",
            "transactionsTrie" : "0x56e81f171bcc55a6ff8345e692c0f86e5b48e01b996cadc001622fb5e363b421",
            "uncleHash" : "0x1dcc4de8dec75d7aab85b567b6ccd41ad312451b948a7413f0a142fd40d49347"
        },
        "genesisRLP" : "0xf901faf901f5a00000000000000000000000000000000000000000000000000000000000000000a01dcc4de8dec75d7aab85b567b6ccd41ad312451b948a7413f0a142fd40d49347942adc25665018aa1fe0e6bc666dac8fc2697ff9baa047790073477f8a65f2303e4cfc13a3d947dfd6b1430bc7fdf6bc22411cd59ec7a056e81f171bcc55a6ff8345e692c0f86e5b48e01b996cadc001622fb5e363b421a056e81f171bcc55a6ff8345e692c0f86e5b48e01b996cadc001622fb5e363b421b901000000000000000000000000000000000000000000000000000000000000000000000000000000000000000000000000000000000000000000000000000000000000000000000000000000000000000000000000000000000000000000000000000000000000000000000000000000000000000000000000000000000000000000000000000000000000000000000000000000000000000000000000000000000000000000000000000000000000000000000000000000000000000000000000000000000000000000000000000000000000000000000000000000000000000000000000000000000000000000000000000000000000000000000000000000000083020000808405f5e100808000a000000000000000000000000000000000000000000000000000000000000000008800000000000000000bc0c0",
        "lastblockhash" : "0xff5f742aae33beeef288b9f5a7da7f9aee289433cbe612001bba0590a7e8bbfe",
        "network" : "London",
        "postState" : {
            "0x095e7baea6a6c7c4c2dfeb977efac326af552d87" : {
                "balance" : "0x0ba1a9ce0ba1a9ce",
                "code" : "0x608060405234801561001057600080fd5b506004361061002b5760003560e01c8063b66176a714610030575b600080fd5b61004a60048036038101906100459190610167565b61004c565b005b60405161005890610145565b604051809103906000f080158015610074573d6000803e3d6000fd5b506000806101000a81548173ffffffffffffffffffffffffffffffffffffffff021916908373ffffffffffffffffffffffffffffffffffffffff16021790555060008054906101000a900473ffffffffffffffffffffffffffffffffffffffff1673ffffffffffffffffffffffffffffffffffffffff1663b66176a783836040518363ffffffff1660e01b815260040161010f9291906101b6565b600060405180830381600087803b15801561012957600080fd5b505af115801561013d573d6000803e3d6000fd5b505050505050565b6101238061020683390190565b600081359050610161816101ee565b92915050565b6000806040838503121561017e5761017d6101e9565b5b600061018c85828601610152565b925050602061019d85828601610152565b9150509250929050565b6101b0816101df565b82525050565b60006040820190506101cb60008301856101a7565b6101d860208301846101a7565b9392505050565b6000819050919050565b600080fd5b6101f7816101df565b811461020257600080fd5b5056fe608060405267ff00ff00ff00ff0060005534801561001c57600080fd5b5060f88061002b6000396000f3fe6080604052348015600f57600080fd5b506004361060285760003560e01c8063b66176a714602d575b600080fd5b60436004803603810190603f91906066565b6045565b005b806000819055508082555050565b60008135905060608160ae565b92915050565b60008060408385031215607a57607960a9565b5b60006086858286016053565b92505060206095858286016053565b9150509250929050565b6000819050919050565b600080fd5b60b581609f565b811460bf57600080fd5b5056fea264697066735822122083925316825ccc4ed9942dca6aec0258780b381232a8b0ffbac2a285abd0f2be64736f6c63430008050033a26469706673582212209081a862d1a15a19d7a0b05b6df7970d0b9539328a4d72411433d8a6f82b3c9c64736f6c63430008050033",
                "nonce" : "0x01",
                "storage" : {
                    "0x00" : "0xd2571607e241ecf590ed94b12d87c94babe36db6"
                }
            },
            "0x195e7baea6a6c7c4c2dfeb977efac326af552d87" : {
                "balance" : "0x0ba1a9ce0ba1a9ce",
                "code" : "0x6080604052348015600f57600080fd5b506004361060285760003560e01c8063b66176a714602d575b600080fd5b60436004803603810190603f91906066565b6045565b005b806000819055508082555050565b60008135905060608160ae565b92915050565b60008060408385031215607a57607960a9565b5b60006086858286016053565b92505060206095858286016053565b9150509250929050565b6000819050919050565b600080fd5b60b581609f565b811460bf57600080fd5b5056fea264697066735822122074ffac7423882f7cbb24582d7632e076ffa2b8fd3a50bc3449d257b9212b5cdc64736f6c63430008050033",
                "nonce" : "0x00",
                "storage" : {
                }
            },
            "0x2adc25665018aa1fe0e6bc666dac8fc2697ff9ba" : {
                "balance" : "0x1bc16d674ec80000",
                "code" : "0x",
                "nonce" : "0x00",
                "storage" : {
                }
            },
            "0xa94f5374fce5edbc8e2a8697c15331677e6ebf0b" : {
                "balance" : "0x0ba1a9ce0b877d60",
                "code" : "0x",
                "nonce" : "0x01",
                "storage" : {
                }
            },
            "0xd2571607e241ecf590ed94b12d87c94babe36db6" : {
                "balance" : "0x00",
                "code" : "0x6080604052348015600f57600080fd5b506004361060285760003560e01c8063b66176a714602d575b600080fd5b60436004803603810190603f91906066565b6045565b005b806000819055508082555050565b60008135905060608160ae565b92915050565b60008060408385031215607a57607960a9565b5b60006086858286016053565b92505060206095858286016053565b9150509250929050565b6000819050919050565b600080fd5b60b581609f565b811460bf57600080fd5b5056fea264697066735822122083925316825ccc4ed9942dca6aec0258780b381232a8b0ffbac2a285abd0f2be64736f6c63430008050033",
                "nonce" : "0x01",
                "storage" : {
                    "0x00" : "0x45",
                    "0x05" : "0x45"
                }
            }
        },
        "pre" : {
            "0x095e7baea6a6c7c4c2dfeb977efac326af552d87" : {
                "balance" : "0x0ba1a9ce0ba1a9ce",
                "code" : "0x608060405234801561001057600080fd5b506004361061002b5760003560e01c8063b66176a714610030575b600080fd5b61004a60048036038101906100459190610167565b61004c565b005b60405161005890610145565b604051809103906000f080158015610074573d6000803e3d6000fd5b506000806101000a81548173ffffffffffffffffffffffffffffffffffffffff021916908373ffffffffffffffffffffffffffffffffffffffff16021790555060008054906101000a900473ffffffffffffffffffffffffffffffffffffffff1673ffffffffffffffffffffffffffffffffffffffff1663b66176a783836040518363ffffffff1660e01b815260040161010f9291906101b6565b600060405180830381600087803b15801561012957600080fd5b505af115801561013d573d6000803e3d6000fd5b505050505050565b6101238061020683390190565b600081359050610161816101ee565b92915050565b6000806040838503121561017e5761017d6101e9565b5b600061018c85828601610152565b925050602061019d85828601610152565b9150509250929050565b6101b0816101df565b82525050565b60006040820190506101cb60008301856101a7565b6101d860208301846101a7565b9392505050565b6000819050919050565b600080fd5b6101f7816101df565b811461020257600080fd5b5056fe608060405267ff00ff00ff00ff0060005534801561001c57600080fd5b5060f88061002b6000396000f3fe6080604052348015600f57600080fd5b506004361060285760003560e01c8063b66176a714602d575b600080fd5b60436004803603810190603f91906066565b6045565b005b806000819055508082555050565b60008135905060608160ae565b92915050565b60008060408385031215607a57607960a9565b5b60006086858286016053565b92505060206095858286016053565b9150509250929050565b6000819050919050565b600080fd5b60b581609f565b811460bf57600080fd5b5056fea264697066735822122083925316825ccc4ed9942dca6aec0258780b381232a8b0ffbac2a285abd0f2be64736f6c63430008050033a26469706673582212209081a862d1a15a19d7a0b05b6df7970d0b9539328a4d72411433d8a6f82b3c9c64736f6c63430008050033",
                "nonce" : "0x00",
                "storage" : {
                }
            },
            "0x195e7baea6a6c7c4c2dfeb977efac326af552d87" : {
                "balance" : "0x0ba1a9ce0ba1a9ce",
                "code" : "0x6080604052348015600f57600080fd5b506004361060285760003560e01c8063b66176a714602d575b600080fd5b60436004803603810190603f91906066565b6045565b005b806000819055508082555050565b60008135905060608160ae565b92915050565b60008060408385031215607a57607960a9565b5b60006086858286016053565b92505060206095858286016053565b9150509250929050565b6000819050919050565b600080fd5b60b581609f565b811460bf57600080fd5b5056fea264697066735822122074ffac7423882f7cbb24582d7632e076ffa2b8fd3a50bc3449d257b9212b5cdc64736f6c63430008050033",
                "nonce" : "0x00",
                "storage" : {
                }
            },
            "0xa94f5374fce5edbc8e2a8697c15331677e6ebf0b" : {
                "balance" : "0x0ba1a9ce0ba1a9ce",
                "code" : "0x",
                "nonce" : "0x00",
                "storage" : {
                }
            }
        },
        "sealEngine" : "NoProof"
    }
}