{
    "loopExp" : {
        "_info" : {
            "comment" : "Ori Pomerantz qbzzt1@gmail.com",
            "filling-rpc-server" : "evm version 1.10.8-unstable-17cc2013-20210812",
            "filling-tool-version" : "retesteth-0.1.3-memory+commit.225b07bc.Linux.g++",
            "labels" : {
                "0" : ":label nop_3_3_160",
                "1" : ":label nop_3_3_160",
                "10" : ":label exp_4b_100k",
                "11" : ":label exp_8b_100k",
                "12" : ":label exp_16b_100k",
                "13" : ":label exp_32b_100k",
                "14" : ":label nop_0_15_300k",
                "2" : ":label exp_3_3_160",
                "3" : ":label exp_3_3_160",
                "4" : ":label nop_2_2_32",
                "5" : ":label nop_2_2_32",
                "6" : ":label exp_2_2_32",
                "7" : ":label exp_2_2_32",
                "8" : ":label exp_1b_1M",
                "9" : ":label exp_2b_100k"
            },
            "lllcversion" : "Version: 0.5.14-develop.2021.6.15+commit.401d5358.Linux.g++",
            "source" : "src/GeneralStateTestsFiller/VMTests/vmPerformance/loopExpFiller.yml",
            "sourceHash" : "63db507ddcaf81f2d9bd4279600d3c7bb843a042e559577432e826a80386183f"
        },
        "env" : {
            "currentBaseFee" : "0x0a",
            "currentCoinbase" : "0x2adc25665018aa1fe0e6bc666dac8fc2697ff9ba",
            "currentDifficulty" : "0x020000",
            "currentGasLimit" : "0x05f5e100",
            "currentNumber" : "0x01",
            "currentTimestamp" : "0x03e8",
            "previousHash" : "0x5e20a0453cecd065ea59c37ac63e079ee08998b6045136a8ce6635c7912ec0b6"
        },
        "post" : {
            "Berlin" : [
                {
                    "hash" : "0xc994f5db89b166045812efee81ea50a6b63b2e7c45b1d0e40b565cffb55c72fe",
                    "indexes" : {
                        "data" : 6,
                        "gas" : 0,
                        "value" : 0
                    },
                    "logs" : "0x1dcc4de8dec75d7aab85b567b6ccd41ad312451b948a7413f0a142fd40d49347",
                    "txbytes" : "0xf8c6800a8404c4b40094cccccccccccccccccccccccccccccccccccccccc80b864dfaf4a870000000000000000000000000000000000000000000000000000000000000002000000000000000000000000000000000000000000000000000000000000000200000000000000000000000000000000000000000000000000000000000000201ba09780cb0587b26d4dfd9d79911c9e918820895f76759552811752b35c26e3c13ca02d29f5a2807cd693f3f2d0a4a05a27a63ca89034dda31a4c40217c43b8f4d2d0"
                },
                {
                    "hash" : "0x1178d25d64e67111f0d2a489a2193a3da9e8795a242a2bc6242fbc388dcef137",
                    "indexes" : {
                        "data" : 7,
                        "gas" : 0,
                        "value" : 0
                    },
                    "logs" : "0x1dcc4de8dec75d7aab85b567b6ccd41ad312451b948a7413f0a142fd40d49347",
                    "txbytes" : "0xf8c6800a8404c4b40094cccccccccccccccccccccccccccccccccccccccc80b86463ad97320000000000000000000000000000000000000000000000000000000000000002000000000000000000000000000000000000000000000000000000000000000200000000000000000000000000000000000000000000000000000000000000201ca07092f606c434449300b0be1c099041e50287cc020c0029e3d13d209ff051112fa003d319a1ebbd0c451f11e259496eb28ad67adb49c9b005b9ce8f1edc96cc73bb"
                },
                {
                    "hash" : "0x9f5604b4e7ba9bc0cc84986f782f6df14ec988292eb9a15be325a0542cea0120",
                    "indexes" : {
                        "data" : 8,
                        "gas" : 0,
                        "value" : 0
                    },
                    "logs" : "0x1dcc4de8dec75d7aab85b567b6ccd41ad312451b948a7413f0a142fd40d49347",
                    "txbytes" : "0xf8c6800a8404c4b40094cccccccccccccccccccccccccccccccccccccccc80b864dfaf4a8700000000000000000000000000000000000000000000000000000000000000ff0000000000000000000000000000000000000000000000005851f42d4c957f2d00000000000000000000000000000000000000000000000000000000000f42401ba0a53f62a7ff9e9941874a490092da0c048d367e430e9dab52a1dcb583cc0d5d2da0515d7daf244fff890a5290e15291e131fd25ef211fd850fa0dea65b2386daebc"
                },
                {
                    "hash" : "0x9f5604b4e7ba9bc0cc84986f782f6df14ec988292eb9a15be325a0542cea0120",
                    "indexes" : {
                        "data" : 12,
                        "gas" : 0,
                        "value" : 0
                    },
                    "logs" : "0x1dcc4de8dec75d7aab85b567b6ccd41ad312451b948a7413f0a142fd40d49347",
                    "txbytes" : "0xf8c6800a8404c4b40094cccccccccccccccccccccccccccccccccccccccc80b864dfaf4a8700000000000000000000000000000000ffffffffffffffffffffffffffffffff0000000000000000000000000000000000000000000000005851f42d4c957f2d00000000000000000000000000000000000000000000000000000000000186a01ca002e0ca9bc08df862408bfc6e23843b8012888448f60e51b35c7d14ec5f08ba3ca01756a29c61f2b3848ca54c7d48c4cf7df42eec25ab6713ce3d214e11c8e9cd3b"
                },
                {
                    "hash" : "0x9f5604b4e7ba9bc0cc84986f782f6df14ec988292eb9a15be325a0542cea0120",
                    "indexes" : {
                        "data" : 13,
                        "gas" : 0,
                        "value" : 0
                    },
                    "logs" : "0x1dcc4de8dec75d7aab85b567b6ccd41ad312451b948a7413f0a142fd40d49347",
                    "txbytes" : "0xf8c6800a8404c4b40094cccccccccccccccccccccccccccccccccccccccc80b864dfaf4a87ffffffffffffffffffffffffffffffffffffffffffffffffffffffffffffffff0000000000000000000000000000000000000000000000005851f42d4c957f2d00000000000000000000000000000000000000000000000000000000000186a01ca0174ba975a10e62619eb84e47858687317ff6c4af0fa71965f31c0b9c1ff3b9b3a002e40aeb2ef9547da699fdb650cdb5f6b058c29aeb8b1e17d14fa9b1ad4b5f95"
                },
                {
                    "hash" : "0x3a92e4ed61c76545c4138b462016a54a0ced73eb310ec1a63830eee6a25234ff",
                    "indexes" : {
                        "data" : 9,
                        "gas" : 0,
                        "value" : 0
                    },
                    "logs" : "0x1dcc4de8dec75d7aab85b567b6ccd41ad312451b948a7413f0a142fd40d49347",
                    "txbytes" : "0xf8c6800a8404c4b40094cccccccccccccccccccccccccccccccccccccccc80b864dfaf4a87000000000000000000000000000000000000000000000000000000000000ffff0000000000000000000000000000000000000000000000005851f42d4c957f2d00000000000000000000000000000000000000000000000000000000000186a01ca0599fead125ffbfc22c75d4b42a5f27a1aaa142a5e56a71c67c31c0791393b752a06877c2d0793a0f20e4663b20a2891a6696b6fe654c7935f91095f6a18b2313c7"
                },
                {
                    "hash" : "0x0ca30f5f9dd85ea00817a2391e1233d9be0772e8c5bdb8ce1d251c55d2b96469",
                    "indexes" : {
                        "data" : 10,
                        "gas" : 0,
                        "value" : 0
                    },
                    "logs" : "0x1dcc4de8dec75d7aab85b567b6ccd41ad312451b948a7413f0a142fd40d49347",
                    "txbytes" : "0xf8c6800a8404c4b40094cccccccccccccccccccccccccccccccccccccccc80b864dfaf4a8700000000000000000000000000000000000000000000000000000000ffffffff0000000000000000000000000000000000000000000000005851f42d4c957f2d00000000000000000000000000000000000000000000000000000000000186a01ca0e409a0215679cb40bce9f45b01b9482d5d2fddc6a808836bf8c9bf6542cb8d1fa056f69a66f6429992d6868bbb22c354d07a01c69dfea5047819eca2b934904d31"
                },
                {
                    "hash" : "0x92f1e190613acf796cff7362a31dd6719b1181b8c37f50a80ce04b1fa386a033",
                    "indexes" : {
                        "data" : 11,
                        "gas" : 0,
                        "value" : 0
                    },
                    "logs" : "0x1dcc4de8dec75d7aab85b567b6ccd41ad312451b948a7413f0a142fd40d49347",
                    "txbytes" : "0xf8c6800a8404c4b40094cccccccccccccccccccccccccccccccccccccccc80b864dfaf4a87000000000000000000000000000000000000000000000000ffffffffffffffff0000000000000000000000000000000000000000000000005851f42d4c957f2d00000000000000000000000000000000000000000000000000000000000186a01ca093cf3bee38c48213d9341efad223bf211c220134cc699289778909e99d8dd686a05a1cbad55c8b49af26ec485a97913ed5a7186611e13d31bee642fca6595729e3"
                },
                {
                    "hash" : "0x7fd8354016e412e5e457b066b22eb81d40ac407480d91259fb80962789c42607",
                    "indexes" : {
                        "data" : 14,
                        "gas" : 0,
                        "value" : 0
                    },
                    "logs" : "0x1dcc4de8dec75d7aab85b567b6ccd41ad312451b948a7413f0a142fd40d49347",
                    "txbytes" : "0xf8c6800a8404c4b40094cccccccccccccccccccccccccccccccccccccccc80b864a34f51e40000000000000000000000000000000000000000000000000000000000000000000000000000000000000000000000000000000000000000000000000000000f00000000000000000000000000000000000000000000000000000000000493e01ba0366a9efa3ea1a1561c86c56706777f73261ce521bc9a33e9a12f665e10c97aaaa079bcbbfd33ddeaa843d5bc8c381dcbaebd7b9f20579662ae74441650bcbd8d6c"
                },
                {
                    "hash" : "0x47b50a7ec8ba185f70ed580bdf5c1fe577e34948b4b2ee08b1c734392640344a",
                    "indexes" : {
                        "data" : 0,
                        "gas" : 0,
                        "value" : 0
                    },
                    "logs" : "0x1dcc4de8dec75d7aab85b567b6ccd41ad312451b948a7413f0a142fd40d49347",
                    "txbytes" : "0xf8c6800a8404c4b40094cccccccccccccccccccccccccccccccccccccccc80b864a34f51e40000000000000000000000000000000000000000000000000000000000000003000000000000000000000000000000000000000000000000000000000000000300000000000000000000000000000000000000000000000000000000000000a01ca0839f1f854029fed5e0d1c597b167596848269dd4c1ad104f06880992904f0d93a06c92b55056de891e6235be5f5c7e5355921aa30429810551dfcb8831db5cd29b"
                },
                {
                    "hash" : "0xfb0665c72115081551a7cada8e5fb45e53a9fe86937fc3cc641c760dfbd133d6",
                    "indexes" : {
                        "data" : 1,
                        "gas" : 0,
                        "value" : 0
                    },
                    "logs" : "0x1dcc4de8dec75d7aab85b567b6ccd41ad312451b948a7413f0a142fd40d49347",
                    "txbytes" : "0xf8c6800a8404c4b40094cccccccccccccccccccccccccccccccccccccccc80b864f078245b0000000000000000000000000000000000000000000000000000000000000003000000000000000000000000000000000000000000000000000000000000000300000000000000000000000000000000000000000000000000000000000000a01ba0e377b3865e0fccb8c5611568509734602c3621954c41020dfcfada5018d0645fa008a11ae993fd3c24cc9e7f235676f3aa2c18b1f5fb306b5e0e3a39958267339a"
                },
                {
                    "hash" : "0x533cefe9dba44b69132cf2411fc4c6f4d7fc6b4e303d97810dc834284bb69cbc",
                    "indexes" : {
                        "data" : 2,
                        "gas" : 0,
                        "value" : 0
                    },
                    "logs" : "0x1dcc4de8dec75d7aab85b567b6ccd41ad312451b948a7413f0a142fd40d49347",
                    "txbytes" : "0xf8c6800a8404c4b40094cccccccccccccccccccccccccccccccccccccccc80b864dfaf4a870000000000000000000000000000000000000000000000000000000000000003000000000000000000000000000000000000000000000000000000000000000300000000000000000000000000000000000000000000000000000000000000a01ca0a7c05bd23aa12ea66b4eb4938991152a319f610116179781af1f39fdd765b3c9a05d4c45da160002173f4ada3b24a500a4774a8b15b26c9778a6bbac9e2eaacf77"
                },
                {
                    "hash" : "0xda1c850db2d4afe4f91ed025b6b21c21aecd3f0a701c4759e7dc8b4b2c670f59",
                    "indexes" : {
                        "data" : 3,
                        "gas" : 0,
                        "value" : 0
                    },
                    "logs" : "0x1dcc4de8dec75d7aab85b567b6ccd41ad312451b948a7413f0a142fd40d49347",
                    "txbytes" : "0xf8c6800a8404c4b40094cccccccccccccccccccccccccccccccccccccccc80b86463ad97320000000000000000000000000000000000000000000000000000000000000003000000000000000000000000000000000000000000000000000000000000000300000000000000000000000000000000000000000000000000000000000000a01ca06da9c48c8559564299649d44231fd1724b646c45ff077e56f987ec77353af793a01c3133fc9b003ddd5f9b0e57ca1911438c1fbd4fbbaf038c43a1dbae824657c5"
                },
                {
                    "hash" : "0x286c30df7805a0d95d901e2a172e824ad473d0bd3de74e1f561e5aebad9166c9",
                    "indexes" : {
                        "data" : 4,
                        "gas" : 0,
                        "value" : 0
                    },
                    "logs" : "0x1dcc4de8dec75d7aab85b567b6ccd41ad312451b948a7413f0a142fd40d49347",
                    "txbytes" : "0xf8c6800a8404c4b40094cccccccccccccccccccccccccccccccccccccccc80b864a34f51e40000000000000000000000000000000000000000000000000000000000000002000000000000000000000000000000000000000000000000000000000000000200000000000000000000000000000000000000000000000000000000000000201ca04dea9b17e4401fe87ce7c266083ecfd9fe38b1f53759e01e312ea7ac5540ecaba0112bdb55fd79166cb4c03a0ec04f7defc71e36cb966551757ba58178c357fbf6"
                },
                {
                    "hash" : "0x5e33544f619ff998a1bf6e5b81cd820695c768cf849f8097b564fce3335564ad",
                    "indexes" : {
                        "data" : 5,
                        "gas" : 0,
                        "value" : 0
                    },
                    "logs" : "0x1dcc4de8dec75d7aab85b567b6ccd41ad312451b948a7413f0a142fd40d49347",
                    "txbytes" : "0xf8c6800a8404c4b40094cccccccccccccccccccccccccccccccccccccccc80b864f078245b0000000000000000000000000000000000000000000000000000000000000002000000000000000000000000000000000000000000000000000000000000000200000000000000000000000000000000000000000000000000000000000000201ba056b81c0366e0340d8912084be9fb92a0af2fe554d71f8738bad9bcdfbb529a0ea014fb28b68806f27496ececfc4d2cc71291d5bc13e3e028617f325484e0eed768"
                }
            ],
            "Istanbul" : [
                {
                    "hash" : "0x8c4b78cbfe975efc0e2ba142a00eee27c7b3951e662d1f46be4a04c6f62e7aef",
                    "indexes" : {
                        "data" : 6,
                        "gas" : 0,
                        "value" : 0
                    },
                    "logs" : "0x1dcc4de8dec75d7aab85b567b6ccd41ad312451b948a7413f0a142fd40d49347",
                    "txbytes" : "0xf8c6800a8404c4b40094cccccccccccccccccccccccccccccccccccccccc80b864dfaf4a870000000000000000000000000000000000000000000000000000000000000002000000000000000000000000000000000000000000000000000000000000000200000000000000000000000000000000000000000000000000000000000000201ba09780cb0587b26d4dfd9d79911c9e918820895f76759552811752b35c26e3c13ca02d29f5a2807cd693f3f2d0a4a05a27a63ca89034dda31a4c40217c43b8f4d2d0"
                },
                {
                    "hash" : "0xf9f3acc462b7084baa3a6cb15466ac4446939aa085cae51184b3c9a3ec28e122",
                    "indexes" : {
                        "data" : 7,
                        "gas" : 0,
                        "value" : 0
                    },
                    "logs" : "0x1dcc4de8dec75d7aab85b567b6ccd41ad312451b948a7413f0a142fd40d49347",
                    "txbytes" : "0xf8c6800a8404c4b40094cccccccccccccccccccccccccccccccccccccccc80b86463ad97320000000000000000000000000000000000000000000000000000000000000002000000000000000000000000000000000000000000000000000000000000000200000000000000000000000000000000000000000000000000000000000000201ca07092f606c434449300b0be1c099041e50287cc020c0029e3d13d209ff051112fa003d319a1ebbd0c451f11e259496eb28ad67adb49c9b005b9ce8f1edc96cc73bb"
                },
                {
                    "hash" : "0x9f5604b4e7ba9bc0cc84986f782f6df14ec988292eb9a15be325a0542cea0120",
                    "indexes" : {
                        "data" : 8,
                        "gas" : 0,
                        "value" : 0
                    },
                    "logs" : "0x1dcc4de8dec75d7aab85b567b6ccd41ad312451b948a7413f0a142fd40d49347",
                    "txbytes" : "0xf8c6800a8404c4b40094cccccccccccccccccccccccccccccccccccccccc80b864dfaf4a8700000000000000000000000000000000000000000000000000000000000000ff0000000000000000000000000000000000000000000000005851f42d4c957f2d00000000000000000000000000000000000000000000000000000000000f42401ba0a53f62a7ff9e9941874a490092da0c048d367e430e9dab52a1dcb583cc0d5d2da0515d7daf244fff890a5290e15291e131fd25ef211fd850fa0dea65b2386daebc"
                },
                {
                    "hash" : "0x9f5604b4e7ba9bc0cc84986f782f6df14ec988292eb9a15be325a0542cea0120",
                    "indexes" : {
                        "data" : 12,
                        "gas" : 0,
                        "value" : 0
                    },
                    "logs" : "0x1dcc4de8dec75d7aab85b567b6ccd41ad312451b948a7413f0a142fd40d49347",
                    "txbytes" : "0xf8c6800a8404c4b40094cccccccccccccccccccccccccccccccccccccccc80b864dfaf4a8700000000000000000000000000000000ffffffffffffffffffffffffffffffff0000000000000000000000000000000000000000000000005851f42d4c957f2d00000000000000000000000000000000000000000000000000000000000186a01ca002e0ca9bc08df862408bfc6e23843b8012888448f60e51b35c7d14ec5f08ba3ca01756a29c61f2b3848ca54c7d48c4cf7df42eec25ab6713ce3d214e11c8e9cd3b"
                },
                {
                    "hash" : "0x9f5604b4e7ba9bc0cc84986f782f6df14ec988292eb9a15be325a0542cea0120",
                    "indexes" : {
                        "data" : 13,
                        "gas" : 0,
                        "value" : 0
                    },
                    "logs" : "0x1dcc4de8dec75d7aab85b567b6ccd41ad312451b948a7413f0a142fd40d49347",
                    "txbytes" : "0xf8c6800a8404c4b40094cccccccccccccccccccccccccccccccccccccccc80b864dfaf4a87ffffffffffffffffffffffffffffffffffffffffffffffffffffffffffffffff0000000000000000000000000000000000000000000000005851f42d4c957f2d00000000000000000000000000000000000000000000000000000000000186a01ca0174ba975a10e62619eb84e47858687317ff6c4af0fa71965f31c0b9c1ff3b9b3a002e40aeb2ef9547da699fdb650cdb5f6b058c29aeb8b1e17d14fa9b1ad4b5f95"
                },
                {
                    "hash" : "0x66bd044b0d29eae624458e3b8152fdd4a9f485cb3784ee2903cc90320e591083",
                    "indexes" : {
                        "data" : 9,
                        "gas" : 0,
                        "value" : 0
                    },
                    "logs" : "0x1dcc4de8dec75d7aab85b567b6ccd41ad312451b948a7413f0a142fd40d49347",
                    "txbytes" : "0xf8c6800a8404c4b40094cccccccccccccccccccccccccccccccccccccccc80b864dfaf4a87000000000000000000000000000000000000000000000000000000000000ffff0000000000000000000000000000000000000000000000005851f42d4c957f2d00000000000000000000000000000000000000000000000000000000000186a01ca0599fead125ffbfc22c75d4b42a5f27a1aaa142a5e56a71c67c31c0791393b752a06877c2d0793a0f20e4663b20a2891a6696b6fe654c7935f91095f6a18b2313c7"
                },
                {
                    "hash" : "0x5593c7ee1c386e6c656f1bcf7cd5b1ad7c3f586691778e9c91021d0d212f5b4f",
                    "indexes" : {
                        "data" : 10,
                        "gas" : 0,
                        "value" : 0
                    },
                    "logs" : "0x1dcc4de8dec75d7aab85b567b6ccd41ad312451b948a7413f0a142fd40d49347",
                    "txbytes" : "0xf8c6800a8404c4b40094cccccccccccccccccccccccccccccccccccccccc80b864dfaf4a8700000000000000000000000000000000000000000000000000000000ffffffff0000000000000000000000000000000000000000000000005851f42d4c957f2d00000000000000000000000000000000000000000000000000000000000186a01ca0e409a0215679cb40bce9f45b01b9482d5d2fddc6a808836bf8c9bf6542cb8d1fa056f69a66f6429992d6868bbb22c354d07a01c69dfea5047819eca2b934904d31"
                },
                {
                    "hash" : "0x85b7c24b72e19194b7e1864bfb1ba07548eec12a775bd6bfad6dba0db9f7fcde",
                    "indexes" : {
                        "data" : 11,
                        "gas" : 0,
                        "value" : 0
                    },
                    "logs" : "0x1dcc4de8dec75d7aab85b567b6ccd41ad312451b948a7413f0a142fd40d49347",
                    "txbytes" : "0xf8c6800a8404c4b40094cccccccccccccccccccccccccccccccccccccccc80b864dfaf4a87000000000000000000000000000000000000000000000000ffffffffffffffff0000000000000000000000000000000000000000000000005851f42d4c957f2d00000000000000000000000000000000000000000000000000000000000186a01ca093cf3bee38c48213d9341efad223bf211c220134cc699289778909e99d8dd686a05a1cbad55c8b49af26ec485a97913ed5a7186611e13d31bee642fca6595729e3"
                },
                {
                    "hash" : "0xdd134bdfcc31fa98f1dc7d4d1d1d941fc0f7c44e9ee0b0192d8dc8c45b654313",
                    "indexes" : {
                        "data" : 14,
                        "gas" : 0,
                        "value" : 0
                    },
                    "logs" : "0x1dcc4de8dec75d7aab85b567b6ccd41ad312451b948a7413f0a142fd40d49347",
                    "txbytes" : "0xf8c6800a8404c4b40094cccccccccccccccccccccccccccccccccccccccc80b864a34f51e40000000000000000000000000000000000000000000000000000000000000000000000000000000000000000000000000000000000000000000000000000000f00000000000000000000000000000000000000000000000000000000000493e01ba0366a9efa3ea1a1561c86c56706777f73261ce521bc9a33e9a12f665e10c97aaaa079bcbbfd33ddeaa843d5bc8c381dcbaebd7b9f20579662ae74441650bcbd8d6c"
                },
                {
                    "hash" : "0xf21f22cd4ae86592163ca76accb9006217f2bb035dfad2fd9c04662815ea3099",
                    "indexes" : {
                        "data" : 0,
                        "gas" : 0,
                        "value" : 0
                    },
                    "logs" : "0x1dcc4de8dec75d7aab85b567b6ccd41ad312451b948a7413f0a142fd40d49347",
                    "txbytes" : "0xf8c6800a8404c4b40094cccccccccccccccccccccccccccccccccccccccc80b864a34f51e40000000000000000000000000000000000000000000000000000000000000003000000000000000000000000000000000000000000000000000000000000000300000000000000000000000000000000000000000000000000000000000000a01ca0839f1f854029fed5e0d1c597b167596848269dd4c1ad104f06880992904f0d93a06c92b55056de891e6235be5f5c7e5355921aa30429810551dfcb8831db5cd29b"
                },
                {
                    "hash" : "0x0e97d0be8c60bc2fba4698dd0d767df0ce038811fb6e618707e8096cecfbe1c6",
                    "indexes" : {
                        "data" : 1,
                        "gas" : 0,
                        "value" : 0
                    },
                    "logs" : "0x1dcc4de8dec75d7aab85b567b6ccd41ad312451b948a7413f0a142fd40d49347",
                    "txbytes" : "0xf8c6800a8404c4b40094cccccccccccccccccccccccccccccccccccccccc80b864f078245b0000000000000000000000000000000000000000000000000000000000000003000000000000000000000000000000000000000000000000000000000000000300000000000000000000000000000000000000000000000000000000000000a01ba0e377b3865e0fccb8c5611568509734602c3621954c41020dfcfada5018d0645fa008a11ae993fd3c24cc9e7f235676f3aa2c18b1f5fb306b5e0e3a39958267339a"
                },
                {
                    "hash" : "0x259cc91cef4bbacded6af332ce9c6b1550d5253cc47b4f053dedf277791c5b43",
                    "indexes" : {
                        "data" : 2,
                        "gas" : 0,
                        "value" : 0
                    },
                    "logs" : "0x1dcc4de8dec75d7aab85b567b6ccd41ad312451b948a7413f0a142fd40d49347",
                    "txbytes" : "0xf8c6800a8404c4b40094cccccccccccccccccccccccccccccccccccccccc80b864dfaf4a870000000000000000000000000000000000000000000000000000000000000003000000000000000000000000000000000000000000000000000000000000000300000000000000000000000000000000000000000000000000000000000000a01ca0a7c05bd23aa12ea66b4eb4938991152a319f610116179781af1f39fdd765b3c9a05d4c45da160002173f4ada3b24a500a4774a8b15b26c9778a6bbac9e2eaacf77"
                },
                {
                    "hash" : "0x7aa7ed2cc2afb47df857a710b5537e8304b66600ccaeb65deadc1f558f6e82d4",
                    "indexes" : {
                        "data" : 3,
                        "gas" : 0,
                        "value" : 0
                    },
                    "logs" : "0x1dcc4de8dec75d7aab85b567b6ccd41ad312451b948a7413f0a142fd40d49347",
                    "txbytes" : "0xf8c6800a8404c4b40094cccccccccccccccccccccccccccccccccccccccc80b86463ad97320000000000000000000000000000000000000000000000000000000000000003000000000000000000000000000000000000000000000000000000000000000300000000000000000000000000000000000000000000000000000000000000a01ca06da9c48c8559564299649d44231fd1724b646c45ff077e56f987ec77353af793a01c3133fc9b003ddd5f9b0e57ca1911438c1fbd4fbbaf038c43a1dbae824657c5"
                },
                {
                    "hash" : "0xb762b9d9f8cc9726c345bcc98bfc0c05473425f7a40db051483b9b0c1a431223",
                    "indexes" : {
                        "data" : 4,
                        "gas" : 0,
                        "value" : 0
                    },
                    "logs" : "0x1dcc4de8dec75d7aab85b567b6ccd41ad312451b948a7413f0a142fd40d49347",
                    "txbytes" : "0xf8c6800a8404c4b40094cccccccccccccccccccccccccccccccccccccccc80b864a34f51e40000000000000000000000000000000000000000000000000000000000000002000000000000000000000000000000000000000000000000000000000000000200000000000000000000000000000000000000000000000000000000000000201ca04dea9b17e4401fe87ce7c266083ecfd9fe38b1f53759e01e312ea7ac5540ecaba0112bdb55fd79166cb4c03a0ec04f7defc71e36cb966551757ba58178c357fbf6"
                },
                {
                    "hash" : "0xf937d048658666b71b33f7a88966214776940087f83bea6fad0380b7ded6e47c",
                    "indexes" : {
                        "data" : 5,
                        "gas" : 0,
                        "value" : 0
                    },
                    "logs" : "0x1dcc4de8dec75d7aab85b567b6ccd41ad312451b948a7413f0a142fd40d49347",
                    "txbytes" : "0xf8c6800a8404c4b40094cccccccccccccccccccccccccccccccccccccccc80b864f078245b0000000000000000000000000000000000000000000000000000000000000002000000000000000000000000000000000000000000000000000000000000000200000000000000000000000000000000000000000000000000000000000000201ba056b81c0366e0340d8912084be9fb92a0af2fe554d71f8738bad9bcdfbb529a0ea014fb28b68806f27496ececfc4d2cc71291d5bc13e3e028617f325484e0eed768"
                }
            ],
            "London" : [
                {
                    "hash" : "0x462be16aababfe26649eb3844c049c9299b78d58ec38dda6babead8f3167f3a1",
                    "indexes" : {
                        "data" : 6,
                        "gas" : 0,
                        "value" : 0
                    },
                    "logs" : "0x1dcc4de8dec75d7aab85b567b6ccd41ad312451b948a7413f0a142fd40d49347",
                    "txbytes" : "0xf8c6800a8404c4b40094cccccccccccccccccccccccccccccccccccccccc80b864dfaf4a870000000000000000000000000000000000000000000000000000000000000002000000000000000000000000000000000000000000000000000000000000000200000000000000000000000000000000000000000000000000000000000000201ba09780cb0587b26d4dfd9d79911c9e918820895f76759552811752b35c26e3c13ca02d29f5a2807cd693f3f2d0a4a05a27a63ca89034dda31a4c40217c43b8f4d2d0"
                },
                {
                    "hash" : "0x196c64241475261467ef3c141e2f4ae5eccf0923a2661a2e4baf25be723c0e0f",
                    "indexes" : {
                        "data" : 7,
                        "gas" : 0,
                        "value" : 0
                    },
                    "logs" : "0x1dcc4de8dec75d7aab85b567b6ccd41ad312451b948a7413f0a142fd40d49347",
                    "txbytes" : "0xf8c6800a8404c4b40094cccccccccccccccccccccccccccccccccccccccc80b86463ad97320000000000000000000000000000000000000000000000000000000000000002000000000000000000000000000000000000000000000000000000000000000200000000000000000000000000000000000000000000000000000000000000201ca07092f606c434449300b0be1c099041e50287cc020c0029e3d13d209ff051112fa003d319a1ebbd0c451f11e259496eb28ad67adb49c9b005b9ce8f1edc96cc73bb"
                },
                {
                    "hash" : "0x9726dfaced4988879c3e82229eb3cd27cbc495557a947cbd774991a5e0b576bb",
                    "indexes" : {
                        "data" : 8,
                        "gas" : 0,
                        "value" : 0
                    },
                    "logs" : "0x1dcc4de8dec75d7aab85b567b6ccd41ad312451b948a7413f0a142fd40d49347",
                    "txbytes" : "0xf8c6800a8404c4b40094cccccccccccccccccccccccccccccccccccccccc80b864dfaf4a8700000000000000000000000000000000000000000000000000000000000000ff0000000000000000000000000000000000000000000000005851f42d4c957f2d00000000000000000000000000000000000000000000000000000000000f42401ba0a53f62a7ff9e9941874a490092da0c048d367e430e9dab52a1dcb583cc0d5d2da0515d7daf244fff890a5290e15291e131fd25ef211fd850fa0dea65b2386daebc"
                },
                {
                    "hash" : "0x9726dfaced4988879c3e82229eb3cd27cbc495557a947cbd774991a5e0b576bb",
                    "indexes" : {
                        "data" : 12,
                        "gas" : 0,
                        "value" : 0
                    },
                    "logs" : "0x1dcc4de8dec75d7aab85b567b6ccd41ad312451b948a7413f0a142fd40d49347",
                    "txbytes" : "0xf8c6800a8404c4b40094cccccccccccccccccccccccccccccccccccccccc80b864dfaf4a8700000000000000000000000000000000ffffffffffffffffffffffffffffffff0000000000000000000000000000000000000000000000005851f42d4c957f2d00000000000000000000000000000000000000000000000000000000000186a01ca002e0ca9bc08df862408bfc6e23843b8012888448f60e51b35c7d14ec5f08ba3ca01756a29c61f2b3848ca54c7d48c4cf7df42eec25ab6713ce3d214e11c8e9cd3b"
                },
                {
                    "hash" : "0x9726dfaced4988879c3e82229eb3cd27cbc495557a947cbd774991a5e0b576bb",
                    "indexes" : {
                        "data" : 13,
                        "gas" : 0,
                        "value" : 0
                    },
                    "logs" : "0x1dcc4de8dec75d7aab85b567b6ccd41ad312451b948a7413f0a142fd40d49347",
                    "txbytes" : "0xf8c6800a8404c4b40094cccccccccccccccccccccccccccccccccccccccc80b864dfaf4a87ffffffffffffffffffffffffffffffffffffffffffffffffffffffffffffffff0000000000000000000000000000000000000000000000005851f42d4c957f2d00000000000000000000000000000000000000000000000000000000000186a01ca0174ba975a10e62619eb84e47858687317ff6c4af0fa71965f31c0b9c1ff3b9b3a002e40aeb2ef9547da699fdb650cdb5f6b058c29aeb8b1e17d14fa9b1ad4b5f95"
                },
                {
                    "hash" : "0x5873d5c54545297d1d9eb2dbc7bd90d6122e412867c77e75f614a4547d36f129",
                    "indexes" : {
                        "data" : 9,
                        "gas" : 0,
                        "value" : 0
                    },
                    "logs" : "0x1dcc4de8dec75d7aab85b567b6ccd41ad312451b948a7413f0a142fd40d49347",
                    "txbytes" : "0xf8c6800a8404c4b40094cccccccccccccccccccccccccccccccccccccccc80b864dfaf4a87000000000000000000000000000000000000000000000000000000000000ffff0000000000000000000000000000000000000000000000005851f42d4c957f2d00000000000000000000000000000000000000000000000000000000000186a01ca0599fead125ffbfc22c75d4b42a5f27a1aaa142a5e56a71c67c31c0791393b752a06877c2d0793a0f20e4663b20a2891a6696b6fe654c7935f91095f6a18b2313c7"
                },
                {
                    "hash" : "0xf30004e05fb0ab7bc6789484199dc8e51387d6953e3f61ac1bb8d97e9ceb37c7",
                    "indexes" : {
                        "data" : 10,
                        "gas" : 0,
                        "value" : 0
                    },
                    "logs" : "0x1dcc4de8dec75d7aab85b567b6ccd41ad312451b948a7413f0a142fd40d49347",
                    "txbytes" : "0xf8c6800a8404c4b40094cccccccccccccccccccccccccccccccccccccccc80b864dfaf4a8700000000000000000000000000000000000000000000000000000000ffffffff0000000000000000000000000000000000000000000000005851f42d4c957f2d00000000000000000000000000000000000000000000000000000000000186a01ca0e409a0215679cb40bce9f45b01b9482d5d2fddc6a808836bf8c9bf6542cb8d1fa056f69a66f6429992d6868bbb22c354d07a01c69dfea5047819eca2b934904d31"
                },
                {
                    "hash" : "0x2bd88efe2c02354ce354ce0a384ab967963a4663435ea5a5abbea0058863301d",
                    "indexes" : {
                        "data" : 11,
                        "gas" : 0,
                        "value" : 0
                    },
                    "logs" : "0x1dcc4de8dec75d7aab85b567b6ccd41ad312451b948a7413f0a142fd40d49347",
                    "txbytes" : "0xf8c6800a8404c4b40094cccccccccccccccccccccccccccccccccccccccc80b864dfaf4a87000000000000000000000000000000000000000000000000ffffffffffffffff0000000000000000000000000000000000000000000000005851f42d4c957f2d00000000000000000000000000000000000000000000000000000000000186a01ca093cf3bee38c48213d9341efad223bf211c220134cc699289778909e99d8dd686a05a1cbad55c8b49af26ec485a97913ed5a7186611e13d31bee642fca6595729e3"
                },
                {
                    "hash" : "0xf2891488748ea3c906a66e1b2f67349c83bc813ad8688fbd08be8d5115297237",
                    "indexes" : {
                        "data" : 14,
                        "gas" : 0,
                        "value" : 0
                    },
                    "logs" : "0x1dcc4de8dec75d7aab85b567b6ccd41ad312451b948a7413f0a142fd40d49347",
                    "txbytes" : "0xf8c6800a8404c4b40094cccccccccccccccccccccccccccccccccccccccc80b864a34f51e40000000000000000000000000000000000000000000000000000000000000000000000000000000000000000000000000000000000000000000000000000000f00000000000000000000000000000000000000000000000000000000000493e01ba0366a9efa3ea1a1561c86c56706777f73261ce521bc9a33e9a12f665e10c97aaaa079bcbbfd33ddeaa843d5bc8c381dcbaebd7b9f20579662ae74441650bcbd8d6c"
                },
                {
                    "hash" : "0xdb7dce1e8c2db769cddcaba54ad234fe01016a852f8e7c92915c39d4909a3cd5",
                    "indexes" : {
                        "data" : 0,
                        "gas" : 0,
                        "value" : 0
                    },
                    "logs" : "0x1dcc4de8dec75d7aab85b567b6ccd41ad312451b948a7413f0a142fd40d49347",
                    "txbytes" : "0xf8c6800a8404c4b40094cccccccccccccccccccccccccccccccccccccccc80b864a34f51e40000000000000000000000000000000000000000000000000000000000000003000000000000000000000000000000000000000000000000000000000000000300000000000000000000000000000000000000000000000000000000000000a01ca0839f1f854029fed5e0d1c597b167596848269dd4c1ad104f06880992904f0d93a06c92b55056de891e6235be5f5c7e5355921aa30429810551dfcb8831db5cd29b"
                },
                {
                    "hash" : "0xe96350f9508dd2434fcb37007a0a5fa05f47ea5a75ea6fcdf77baae2f99b5dd5",
                    "indexes" : {
                        "data" : 1,
                        "gas" : 0,
                        "value" : 0
                    },
                    "logs" : "0x1dcc4de8dec75d7aab85b567b6ccd41ad312451b948a7413f0a142fd40d49347",
                    "txbytes" : "0xf8c6800a8404c4b40094cccccccccccccccccccccccccccccccccccccccc80b864f078245b0000000000000000000000000000000000000000000000000000000000000003000000000000000000000000000000000000000000000000000000000000000300000000000000000000000000000000000000000000000000000000000000a01ba0e377b3865e0fccb8c5611568509734602c3621954c41020dfcfada5018d0645fa008a11ae993fd3c24cc9e7f235676f3aa2c18b1f5fb306b5e0e3a39958267339a"
                },
                {
                    "hash" : "0xb3f1aec67f56aa4debfd6db406d8b99e6e6114734302cf15978b2c3492103bac",
                    "indexes" : {
                        "data" : 2,
                        "gas" : 0,
                        "value" : 0
                    },
                    "logs" : "0x1dcc4de8dec75d7aab85b567b6ccd41ad312451b948a7413f0a142fd40d49347",
                    "txbytes" : "0xf8c6800a8404c4b40094cccccccccccccccccccccccccccccccccccccccc80b864dfaf4a870000000000000000000000000000000000000000000000000000000000000003000000000000000000000000000000000000000000000000000000000000000300000000000000000000000000000000000000000000000000000000000000a01ca0a7c05bd23aa12ea66b4eb4938991152a319f610116179781af1f39fdd765b3c9a05d4c45da160002173f4ada3b24a500a4774a8b15b26c9778a6bbac9e2eaacf77"
                },
                {
                    "hash" : "0xa2ab09d4565a44e2db92ce3dd9a3722a62ed333c1104f48f9d61d02f82678872",
                    "indexes" : {
                        "data" : 3,
                        "gas" : 0,
                        "value" : 0
                    },
                    "logs" : "0x1dcc4de8dec75d7aab85b567b6ccd41ad312451b948a7413f0a142fd40d49347",
                    "txbytes" : "0xf8c6800a8404c4b40094cccccccccccccccccccccccccccccccccccccccc80b86463ad97320000000000000000000000000000000000000000000000000000000000000003000000000000000000000000000000000000000000000000000000000000000300000000000000000000000000000000000000000000000000000000000000a01ca06da9c48c8559564299649d44231fd1724b646c45ff077e56f987ec77353af793a01c3133fc9b003ddd5f9b0e57ca1911438c1fbd4fbbaf038c43a1dbae824657c5"
                },
                {
                    "hash" : "0x556312c6933f344b4e26c073ec598ca9ab77cfa386af87d8c7a2a9c92fcb5378",
                    "indexes" : {
                        "data" : 4,
                        "gas" : 0,
                        "value" : 0
                    },
                    "logs" : "0x1dcc4de8dec75d7aab85b567b6ccd41ad312451b948a7413f0a142fd40d49347",
                    "txbytes" : "0xf8c6800a8404c4b40094cccccccccccccccccccccccccccccccccccccccc80b864a34f51e40000000000000000000000000000000000000000000000000000000000000002000000000000000000000000000000000000000000000000000000000000000200000000000000000000000000000000000000000000000000000000000000201ca04dea9b17e4401fe87ce7c266083ecfd9fe38b1f53759e01e312ea7ac5540ecaba0112bdb55fd79166cb4c03a0ec04f7defc71e36cb966551757ba58178c357fbf6"
                },
                {
                    "hash" : "0x1620e64299fc98fecbcc51bdbb0d11ddc7648c97948593fa729f338923d9f85b",
                    "indexes" : {
                        "data" : 5,
                        "gas" : 0,
                        "value" : 0
                    },
                    "logs" : "0x1dcc4de8dec75d7aab85b567b6ccd41ad312451b948a7413f0a142fd40d49347",
                    "txbytes" : "0xf8c6800a8404c4b40094cccccccccccccccccccccccccccccccccccccccc80b864f078245b0000000000000000000000000000000000000000000000000000000000000002000000000000000000000000000000000000000000000000000000000000000200000000000000000000000000000000000000000000000000000000000000201ba056b81c0366e0340d8912084be9fb92a0af2fe554d71f8738bad9bcdfbb529a0ea014fb28b68806f27496ececfc4d2cc71291d5bc13e3e028617f325484e0eed768"
                }
            ]
        },
        "pre" : {
            "0xa94f5374fce5edbc8e2a8697c15331677e6ebf0b" : {
                "balance" : "0x0ba1a9ce0ba1a9ce",
                "code" : "0x",
                "nonce" : "0x00",
                "storage" : {
                }
            },
            "0xcccccccccccccccccccccccccccccccccccccccc" : {
                "balance" : "0x0ba1a9ce0ba1a9ce",
                "code" : "0x608060405234801561001057600080fd5b506004361061004c5760003560e01c806363ad973214610051578063a34f51e414610081578063dfaf4a87146100b1578063f078245b146100e1575b600080fd5b61006b6004803603810190610066919061024f565b610111565b60405161007891906102b1565b60405180910390f35b61009b6004803603810190610096919061024f565b610199565b6040516100a891906102b1565b60405180910390f35b6100cb60048036038101906100c6919061024f565b6101cb565b6040516100d891906102b1565b60405180910390f35b6100fb60048036038101906100f6919061024f565b610208565b60405161010891906102b1565b60405180910390f35b60008083905060005b838110156101865785820a915085820a915085820a915085820a915085820a915085820a915085820a915085820a915085820a915085820a915085820a915085820a915085820a915085820a915085820a915085820a915060108161017f91906102cc565b905061011a565b5080600081905550809150509392505050565b6000805b828110156101b9576001816101b291906102cc565b905061019d565b50826000819055508290509392505050565b60008083905060005b838110156101f55785820a91506001816101ee91906102cc565b90506101d4565b5080600081905550809150509392505050565b6000805b828110156102285760108161022191906102cc565b905061020c565b50826000819055508290509392505050565b60008135905061024981610360565b92915050565b6000806000606084860312156102685761026761035b565b5b60006102768682870161023a565b93505060206102878682870161023a565b92505060406102988682870161023a565b9150509250925092565b6102ab81610322565b82525050565b60006020820190506102c660008301846102a2565b92915050565b60006102d782610322565b91506102e283610322565b9250827fffffffffffffffffffffffffffffffffffffffffffffffffffffffffffffffff038211156103175761031661032c565b5b828201905092915050565b6000819050919050565b7f4e487b7100000000000000000000000000000000000000000000000000000000600052601160045260246000fd5b600080fd5b61036981610322565b811461037457600080fd5b5056fea26469706673582212203d2aaf9088ab7953e0411f7937f59ce184d0b35c7ba0d6a6a677a0e139b6c47964736f6c63430008050033",
                "nonce" : "0x01",
                "storage" : {
                }
            }
        },
        "transaction" : {
            "data" : [
                "0xa34f51e40000000000000000000000000000000000000000000000000000000000000003000000000000000000000000000000000000000000000000000000000000000300000000000000000000000000000000000000000000000000000000000000a0",
                "0xf078245b0000000000000000000000000000000000000000000000000000000000000003000000000000000000000000000000000000000000000000000000000000000300000000000000000000000000000000000000000000000000000000000000a0",
                "0xdfaf4a870000000000000000000000000000000000000000000000000000000000000003000000000000000000000000000000000000000000000000000000000000000300000000000000000000000000000000000000000000000000000000000000a0",
                "0x63ad97320000000000000000000000000000000000000000000000000000000000000003000000000000000000000000000000000000000000000000000000000000000300000000000000000000000000000000000000000000000000000000000000a0",
                "0xa34f51e4000000000000000000000000000000000000000000000000000000000000000200000000000000000000000000000000000000000000000000000000000000020000000000000000000000000000000000000000000000000000000000000020",
                "0xf078245b000000000000000000000000000000000000000000000000000000000000000200000000000000000000000000000000000000000000000000000000000000020000000000000000000000000000000000000000000000000000000000000020",
                "0xdfaf4a87000000000000000000000000000000000000000000000000000000000000000200000000000000000000000000000000000000000000000000000000000000020000000000000000000000000000000000000000000000000000000000000020",
                "0x63ad9732000000000000000000000000000000000000000000000000000000000000000200000000000000000000000000000000000000000000000000000000000000020000000000000000000000000000000000000000000000000000000000000020",
                "0xdfaf4a8700000000000000000000000000000000000000000000000000000000000000ff0000000000000000000000000000000000000000000000005851f42d4c957f2d00000000000000000000000000000000000000000000000000000000000f4240",
                "0xdfaf4a87000000000000000000000000000000000000000000000000000000000000ffff0000000000000000000000000000000000000000000000005851f42d4c957f2d00000000000000000000000000000000000000000000000000000000000186a0",
                "0xdfaf4a8700000000000000000000000000000000000000000000000000000000ffffffff0000000000000000000000000000000000000000000000005851f42d4c957f2d00000000000000000000000000000000000000000000000000000000000186a0",
                "0xdfaf4a87000000000000000000000000000000000000000000000000ffffffffffffffff0000000000000000000000000000000000000000000000005851f42d4c957f2d00000000000000000000000000000000000000000000000000000000000186a0",
                "0xdfaf4a8700000000000000000000000000000000ffffffffffffffffffffffffffffffff0000000000000000000000000000000000000000000000005851f42d4c957f2d00000000000000000000000000000000000000000000000000000000000186a0",
                "0xdfaf4a87ffffffffffffffffffffffffffffffffffffffffffffffffffffffffffffffff0000000000000000000000000000000000000000000000005851f42d4c957f2d00000000000000000000000000000000000000000000000000000000000186a0",
                "0xa34f51e40000000000000000000000000000000000000000000000000000000000000000000000000000000000000000000000000000000000000000000000000000000f00000000000000000000000000000000000000000000000000000000000493e0"
            ],
            "gasLimit" : [
                "0x04c4b400"
            ],
            "gasPrice" : "0x0a",
            "nonce" : "0x00",
            "secretKey" : "0x45a915e4d060149eb4365960e6a7a45f334393093061116b197e3240065ff2d8",
            "to" : "0xcccccccccccccccccccccccccccccccccccccccc",
            "value" : [
                "0x00"
            ]
        }
    }
}