{
    "performanceTester" : {
        "_info" : {
            "comment" : "Ori Pomerantz qbzzt1@gmail.com",
            "filling-rpc-server" : "evm version 1.10.8-unstable-17cc2013-20210812",
            "filling-tool-version" : "retesteth-0.1.3-memory+commit.225b07bc.Linux.g++",
            "labels" : {
                "0" : ":label fib10",
                "1" : ":label fib16",
                "2" : ":label ack31",
                "3" : ":label ack32",
                "4" : ":label ack33"
            },
            "lllcversion" : "Version: 0.5.14-develop.2021.6.15+commit.401d5358.Linux.g++",
            "source" : "src/GeneralStateTestsFiller/VMTests/vmPerformance/performanceTesterFiller.yml",
            "sourceHash" : "eca0383bebe52f427d415657a7505430982f5faad507c5d5bd89160fe5046b5d"
        },
        "env" : {
            "currentBaseFee" : "0x0a",
            "currentCoinbase" : "0x2adc25665018aa1fe0e6bc666dac8fc2697ff9ba",
            "currentDifficulty" : "0x020000",
            "currentGasLimit" : "0x05f5e100",
            "currentNumber" : "0x01",
            "currentTimestamp" : "0x03e8",
            "previousHash" : "0x5e20a0453cecd065ea59c37ac63e079ee08998b6045136a8ce6635c7912ec0b6"
        },
        "post" : {
            "Berlin" : [
                {
                    "hash" : "0x223d2ef37993890509d87ebd6ffe0a89882242ec2f3bcc42a8122a8dfd6c28af",
                    "indexes" : {
                        "data" : 0,
                        "gas" : 0,
                        "value" : 0
                    },
                    "logs" : "0x1dcc4de8dec75d7aab85b567b6ccd41ad312451b948a7413f0a142fd40d49347",
                    "txbytes" : "0xf885800a8404c4b40094cccccccccccccccccccccccccccccccccccccccc80a4c6c2ea17000000000000000000000000000000000000000000000000000000000000000a1ca057de5f31624c20f3f000936353b54dab2f8c920abc0ec076fe0fa217d92cee51a001d80abf35322a211b2297438b9d94449d3aeacb4ece89370eed3490917eefe5"
                },
                {
                    "hash" : "0x4199bebb225d5a0e0db1fc609c57e6bb70600fc73adba4d71ed61bff12585cc4",
                    "indexes" : {
                        "data" : 1,
                        "gas" : 0,
                        "value" : 0
                    },
                    "logs" : "0x1dcc4de8dec75d7aab85b567b6ccd41ad312451b948a7413f0a142fd40d49347",
                    "txbytes" : "0xf885800a8404c4b40094cccccccccccccccccccccccccccccccccccccccc80a4c6c2ea1700000000000000000000000000000000000000000000000000000000000000101ca0ba61e5a78016f9bef00dc061a921d7657e00754f30eb253e233ed3e927f373c3a04d0b5e7ffb2f53c8497f1e8b2710be576a07667c5ab424bd3aaae27421dd1299"
                },
                {
                    "hash" : "0x2f671806196dd3cb61fb8f005f637771dd12501a6de860c74bcc2973ea32c2eb",
                    "indexes" : {
                        "data" : 2,
                        "gas" : 0,
                        "value" : 0
                    },
                    "logs" : "0x1dcc4de8dec75d7aab85b567b6ccd41ad312451b948a7413f0a142fd40d49347",
                    "txbytes" : "0xf8a5800a8404c4b40094cccccccccccccccccccccccccccccccccccccccc80b844faa073f8000000000000000000000000000000000000000000000000000000000000000300000000000000000000000000000000000000000000000000000000000000011ca0066b879980180490a2dde0b500a19850c3f1192a85c099a61bc5829016d7f9d89fd6c73657072fc425d683d6190d831b9bcca711c6f3251735d28620ff1a8835"
                },
                {
                    "hash" : "0x6797595dd2788f1abe27cfad4369ba8ee8bb0b9976dec745b7ebd641a1fc3ce3",
                    "indexes" : {
                        "data" : 3,
                        "gas" : 0,
                        "value" : 0
                    },
                    "logs" : "0x1dcc4de8dec75d7aab85b567b6ccd41ad312451b948a7413f0a142fd40d49347",
                    "txbytes" : "0xf8a6800a8404c4b40094cccccccccccccccccccccccccccccccccccccccc80b844faa073f8000000000000000000000000000000000000000000000000000000000000000300000000000000000000000000000000000000000000000000000000000000021ba064df569911b50cd74e635fa957b00c27d5b2fa1e10ecc662dbb8a98d3a59ba00a02585ff31134ee9af61de78c9738d7684c3acdcd856a9837e0ffd627734de201e"
                },
                {
                    "hash" : "0x2925d9d3727dd7659638f6f376678eca5db2f0d31760d69d6c63c08bb0f43660",
                    "indexes" : {
                        "data" : 4,
                        "gas" : 0,
                        "value" : 0
                    },
                    "logs" : "0x1dcc4de8dec75d7aab85b567b6ccd41ad312451b948a7413f0a142fd40d49347",
                    "txbytes" : "0xf8a6800a8404c4b40094cccccccccccccccccccccccccccccccccccccccc80b844faa073f8000000000000000000000000000000000000000000000000000000000000000300000000000000000000000000000000000000000000000000000000000000031ba0cac2ef44f34bfc3c00f712011ea6f635f75a1273eed8360d1273ce5b0666651fa009097055b00ed9035dea8438d422fb1b48c0ca49ccdc893dbd4cdcc4b3682b68"
                }
            ],
            "Istanbul" : [
                {
                    "hash" : "0x1160fe6854e9df890fc7cd8024b6d11be4816dffd59317c39c08bd8d2b95950c",
                    "indexes" : {
                        "data" : 0,
                        "gas" : 0,
                        "value" : 0
                    },
                    "logs" : "0x1dcc4de8dec75d7aab85b567b6ccd41ad312451b948a7413f0a142fd40d49347",
                    "txbytes" : "0xf885800a8404c4b40094cccccccccccccccccccccccccccccccccccccccc80a4c6c2ea17000000000000000000000000000000000000000000000000000000000000000a1ca057de5f31624c20f3f000936353b54dab2f8c920abc0ec076fe0fa217d92cee51a001d80abf35322a211b2297438b9d94449d3aeacb4ece89370eed3490917eefe5"
                },
                {
                    "hash" : "0x351d3ffdaf4560eef3dd8b47cb97c3b2fe6ec911e3ab00625babc260fa5e6677",
                    "indexes" : {
                        "data" : 1,
                        "gas" : 0,
                        "value" : 0
                    },
                    "logs" : "0x1dcc4de8dec75d7aab85b567b6ccd41ad312451b948a7413f0a142fd40d49347",
                    "txbytes" : "0xf885800a8404c4b40094cccccccccccccccccccccccccccccccccccccccc80a4c6c2ea1700000000000000000000000000000000000000000000000000000000000000101ca0ba61e5a78016f9bef00dc061a921d7657e00754f30eb253e233ed3e927f373c3a04d0b5e7ffb2f53c8497f1e8b2710be576a07667c5ab424bd3aaae27421dd1299"
                },
                {
                    "hash" : "0xf158ee6170ec7dadaa0e23f63ddd722e4b27882dfbc7aaee4f97b4ffc1210534",
                    "indexes" : {
                        "data" : 2,
                        "gas" : 0,
                        "value" : 0
                    },
                    "logs" : "0x1dcc4de8dec75d7aab85b567b6ccd41ad312451b948a7413f0a142fd40d49347",
                    "txbytes" : "0xf8a5800a8404c4b40094cccccccccccccccccccccccccccccccccccccccc80b844faa073f8000000000000000000000000000000000000000000000000000000000000000300000000000000000000000000000000000000000000000000000000000000011ca0066b879980180490a2dde0b500a19850c3f1192a85c099a61bc5829016d7f9d89fd6c73657072fc425d683d6190d831b9bcca711c6f3251735d28620ff1a8835"
                },
                {
                    "hash" : "0xd52c916a5b30eebd34ec90dc6fb99ccaf2c4f828022be225b39d0ef9bb84c89d",
                    "indexes" : {
                        "data" : 3,
                        "gas" : 0,
                        "value" : 0
                    },
                    "logs" : "0x1dcc4de8dec75d7aab85b567b6ccd41ad312451b948a7413f0a142fd40d49347",
                    "txbytes" : "0xf8a6800a8404c4b40094cccccccccccccccccccccccccccccccccccccccc80b844faa073f8000000000000000000000000000000000000000000000000000000000000000300000000000000000000000000000000000000000000000000000000000000021ba064df569911b50cd74e635fa957b00c27d5b2fa1e10ecc662dbb8a98d3a59ba00a02585ff31134ee9af61de78c9738d7684c3acdcd856a9837e0ffd627734de201e"
                },
                {
                    "hash" : "0x1966ae002ae76895f6d46cb3d29a44f422966f09409b57a4d55353a3ec0a5fad",
                    "indexes" : {
                        "data" : 4,
                        "gas" : 0,
                        "value" : 0
                    },
                    "logs" : "0x1dcc4de8dec75d7aab85b567b6ccd41ad312451b948a7413f0a142fd40d49347",
                    "txbytes" : "0xf8a6800a8404c4b40094cccccccccccccccccccccccccccccccccccccccc80b844faa073f8000000000000000000000000000000000000000000000000000000000000000300000000000000000000000000000000000000000000000000000000000000031ba0cac2ef44f34bfc3c00f712011ea6f635f75a1273eed8360d1273ce5b0666651fa009097055b00ed9035dea8438d422fb1b48c0ca49ccdc893dbd4cdcc4b3682b68"
                }
            ],
            "London" : [
                {
                    "hash" : "0x67d174f563e349a64e52e6d39b054ff25870be70c68ca9062ff779a9652d72c4",
                    "indexes" : {
                        "data" : 0,
                        "gas" : 0,
                        "value" : 0
                    },
                    "logs" : "0x1dcc4de8dec75d7aab85b567b6ccd41ad312451b948a7413f0a142fd40d49347",
                    "txbytes" : "0xf885800a8404c4b40094cccccccccccccccccccccccccccccccccccccccc80a4c6c2ea17000000000000000000000000000000000000000000000000000000000000000a1ca057de5f31624c20f3f000936353b54dab2f8c920abc0ec076fe0fa217d92cee51a001d80abf35322a211b2297438b9d94449d3aeacb4ece89370eed3490917eefe5"
                },
                {
                    "hash" : "0xbbd084e8b5c3fc9257946d9a773be53d10a9a67494fe36194ef8f933d11a96f9",
                    "indexes" : {
                        "data" : 1,
                        "gas" : 0,
                        "value" : 0
                    },
                    "logs" : "0x1dcc4de8dec75d7aab85b567b6ccd41ad312451b948a7413f0a142fd40d49347",
                    "txbytes" : "0xf885800a8404c4b40094cccccccccccccccccccccccccccccccccccccccc80a4c6c2ea1700000000000000000000000000000000000000000000000000000000000000101ca0ba61e5a78016f9bef00dc061a921d7657e00754f30eb253e233ed3e927f373c3a04d0b5e7ffb2f53c8497f1e8b2710be576a07667c5ab424bd3aaae27421dd1299"
                },
                {
                    "hash" : "0x29dfe72b918cf756881e25447cdbf6058e001daf052d48b23c8a37cddba0c34a",
                    "indexes" : {
                        "data" : 2,
                        "gas" : 0,
                        "value" : 0
                    },
                    "logs" : "0x1dcc4de8dec75d7aab85b567b6ccd41ad312451b948a7413f0a142fd40d49347",
                    "txbytes" : "0xf8a5800a8404c4b40094cccccccccccccccccccccccccccccccccccccccc80b844faa073f8000000000000000000000000000000000000000000000000000000000000000300000000000000000000000000000000000000000000000000000000000000011ca0066b879980180490a2dde0b500a19850c3f1192a85c099a61bc5829016d7f9d89fd6c73657072fc425d683d6190d831b9bcca711c6f3251735d28620ff1a8835"
                },
                {
                    "hash" : "0x393588832bfc1b788616d7815021c7b3b5333fcfdbb5306c75eabb9be057275f",
                    "indexes" : {
                        "data" : 3,
                        "gas" : 0,
                        "value" : 0
                    },
                    "logs" : "0x1dcc4de8dec75d7aab85b567b6ccd41ad312451b948a7413f0a142fd40d49347",
                    "txbytes" : "0xf8a6800a8404c4b40094cccccccccccccccccccccccccccccccccccccccc80b844faa073f8000000000000000000000000000000000000000000000000000000000000000300000000000000000000000000000000000000000000000000000000000000021ba064df569911b50cd74e635fa957b00c27d5b2fa1e10ecc662dbb8a98d3a59ba00a02585ff31134ee9af61de78c9738d7684c3acdcd856a9837e0ffd627734de201e"
                },
                {
                    "hash" : "0x36bc378ee861ff0469aea6eb13d42effca7c50a42ee16d7eef3e119dcc71afc1",
                    "indexes" : {
                        "data" : 4,
                        "gas" : 0,
                        "value" : 0
                    },
                    "logs" : "0x1dcc4de8dec75d7aab85b567b6ccd41ad312451b948a7413f0a142fd40d49347",
                    "txbytes" : "0xf8a6800a8404c4b40094cccccccccccccccccccccccccccccccccccccccc80b844faa073f8000000000000000000000000000000000000000000000000000000000000000300000000000000000000000000000000000000000000000000000000000000031ba0cac2ef44f34bfc3c00f712011ea6f635f75a1273eed8360d1273ce5b0666651fa009097055b00ed9035dea8438d422fb1b48c0ca49ccdc893dbd4cdcc4b3682b68"
                }
            ]
        },
        "pre" : {
            "0xa94f5374fce5edbc8e2a8697c15331677e6ebf0b" : {
                "balance" : "0x0ba1a9ce0ba1a9ce",
                "code" : "0x",
                "nonce" : "0x00",
                "storage" : {
                }
            },
            "0xcccccccccccccccccccccccccccccccccccccccc" : {
                "balance" : "0x0ba1a9ce0ba1a9ce",
                "code" : "0x608060405234801561001057600080fd5b506004361061004c5760003560e01c80632839e9281461005157806361047ff414610081578063c6c2ea17146100b1578063faa073f8146100e1575b600080fd5b61006b6004803603810190610066919061025d565b610111565b60405161007891906102ac565b60405180910390f35b61009b60048036038101906100969190610230565b61018a565b6040516100a891906102ac565b60405180910390f35b6100cb60048036038101906100c69190610230565b6101e3565b6040516100d891906102ac565b60405180910390f35b6100fb60048036038101906100f6919061025d565b6101fe565b60405161010891906102ac565b60405180910390f35b60008083141561012f5760018261012891906102c7565b9050610184565b60008214156101565761014f600184610148919061031d565b6001610111565b9050610184565b610181600184610166919061031d565b61017c85600186610177919061031d565b610111565b610111565b90505b92915050565b60008082148061019a5750600182145b156101a7578190506101de565b6101bc6002836101b7919061031d565b61018a565b6101d16001846101cc919061031d565b61018a565b6101db91906102c7565b90505b919050565b60006101ee8261018a565b6000819055506160a79050919050565b600061020a8383610111565b600081905550600054905092915050565b60008135905061022a8161038f565b92915050565b6000602082840312156102465761024561038a565b5b60006102548482850161021b565b91505092915050565b600080604083850312156102745761027361038a565b5b60006102828582860161021b565b92505060206102938582860161021b565b9150509250929050565b6102a681610351565b82525050565b60006020820190506102c1600083018461029d565b92915050565b60006102d282610351565b91506102dd83610351565b9250827fffffffffffffffffffffffffffffffffffffffffffffffffffffffffffffffff038211156103125761031161035b565b5b828201905092915050565b600061032882610351565b915061033383610351565b9250828210156103465761034561035b565b5b828203905092915050565b6000819050919050565b7f4e487b7100000000000000000000000000000000000000000000000000000000600052601160045260246000fd5b600080fd5b61039881610351565b81146103a357600080fd5b5056fea264697066735822122029096de85833072765717f9c26997cb7678d77171827e3fb799f16484aa343cf64736f6c63430008050033",
                "nonce" : "0x01",
                "storage" : {
                }
            }
        },
        "transaction" : {
            "data" : [
                "0xc6c2ea17000000000000000000000000000000000000000000000000000000000000000a",
                "0xc6c2ea170000000000000000000000000000000000000000000000000000000000000010",
                "0xfaa073f800000000000000000000000000000000000000000000000000000000000000030000000000000000000000000000000000000000000000000000000000000001",
                "0xfaa073f800000000000000000000000000000000000000000000000000000000000000030000000000000000000000000000000000000000000000000000000000000002",
                "0xfaa073f800000000000000000000000000000000000000000000000000000000000000030000000000000000000000000000000000000000000000000000000000000003"
            ],
            "gasLimit" : [
                "0x04c4b400"
            ],
            "gasPrice" : "0x0a",
            "nonce" : "0x00",
            "secretKey" : "0x45a915e4d060149eb4365960e6a7a45f334393093061116b197e3240065ff2d8",
            "to" : "0xcccccccccccccccccccccccccccccccccccccccc",
            "value" : [
                "0x00"
            ]
        }
    }
}